:04000000FEEFFFF020
:020000040001F9
:10FDA4000DECFFF0ADECFFF0EFECFEF01200016E95
:10FDB400C28001C5C1F4C282A60EE82EFED700D0CF
:10FDC400C2921200016EC29001C5C1F4C282A60E95
:10FDD400E82EFED700D0C2921200620E0001AD6F71
:10FDE400000EAF6F000EB36F020EB16F000EB06F56
:10FDF400000EAC6F12004D6963726F732041443280
:10FE0400303232202020544532303135202D204CE0
:10FE1400616220646520000E0001606F000E616F56
:10FE2400000E636F000E646F000E656F000E666F48
:10FE3400000E676F000E686F1200FA0EF66EFD0E6C
:10FE4400F76E010EF86E01EE25F110EE20F00900B8
:10FE5400F5C4EEF4E550E150FAE100015DEFFFF086
:10FE6400C290380EC16EC282A60EE82EFED700D014
:10FE7400C292020EC16EC282A60EE82EFED700D038
:10FE8400C2920C0EC16EC282A60EE82EFED700D01E
:10FE9400C292010EC16EC282A60EE82EFED700D019
:10FEA400C292800EC16EC282A60EE82EFED700D08A
:10FEB400C292C2801200D2ECFEF0030E036E8A0ED0
:10FEC400026E560EE82EFED7022EFCD7032EFAD76A
:10FED40021EE35F111EE04F10F0EDBC4E3F4E80674
:10FEE400FCE221EE25F111EE14F10F0EDBC4E3F474
:10FEF400E806FCE232ECFFF0000E246E040E24242B
:10FF0400D96EDA6A050EDA22DF50D9ECFEF0242A23
:10FF14000F0E246490EFFFF092EFFFF080EFFFF0FC
:10FF2400C00EE4ECFEF0000E246E140E2424D96EF0
:10FF3400DA6A050EDA22DF50D9ECFEF0242A0F0E1D
:10FF44002464A7EFFFF0A9EFFFF097EFFFF0A9EF0C
:10FF5400FFF0FEEFFFF0000EC26E000EC16E000E49
:10FF6400BE6E000EC36E000EBF6E000EC06E040E99
:10FF7400CA6ECB68C668C768C868000EC96E000E32
:10FF84000401186FC40E106F000E086F040E206F6A
:10FF94002869000E006F000E196F000E296F000E05
:10FFA400216F000E096F000E016F000E116F000E1D
:10FFB4000201896F000E886F000E876F000E866F36
:10FFC400000E0401226F000E2A6F000E026F000E55
:10FFD4000A6F000E126F000E1A6F03690B69136922
:10FFE4001B69070E236F2B6904690C6914691C696A
:0CFFF4000F0E246F2C6912001FEFFFF0AD
:020000040020DA
:10000000FF0FFF0FFF0FFF0FFF0FFF0FFF0FFF0F80
:10001000FF0FFF0FFF0FFF0FFF0FFF0FFF0FFF0F70
:10002000FF0FFF0FFF0FFF0FFF0FFF0FFF0FFF0F60
:10003000FF0FFF0FFF0FFF0FFF0FFF0FFF0FFF0F50
:020000040030CA
:0A000000ECFFF7FF9FFFFFFFFFFF7B
:00000001FF
