:04000000FEEFFFF020
:102500000000000000DCCFD1350000000000C01545
:102510003F6042A20D70A5EC363BAAB83F4F38761B
:102520003F3CAA38338CBEBF350072313F18723140
:102530003F4CBB31330EEADDB555B38A38610B36FB
:10254000BBABAA2A3E42F1533E55326C3E05A38BEB
:102550003EABAAAA3EB76DDB3E9A99193F6042A2F4
:102560000DCAF249710000804B0000803F0000C09E
:0F2570003F00AAB83FC623F6B80040763F0000F0
:1025800084C5B8F685C5B9F686C5BAF687C5BBF663
:10259000B8C660F6B9C661F6BAC662F6BBC663F6DF
:1025A00088C5B8F689C5B9F68AC5BAF68BC5BBF633
:1025B000B8C684F6B9C685F6BAC686F6BBC687F62F
:1025C000FF0E06016015A86FFF0E6115A96FFF0EC3
:1025D0006215AA6F7F0E6315AB6FFF0E8415986F9F
:1025E000FF0E8515996FFF0E86159A6F7F0E871562
:1025F0009B6F985199119A119B11D8A402EF13F077
:1026000004EF13F00FEF13F0000E0501846F000EBE
:10261000856F800E866F3F0E876F63EF27F0800E09
:10262000621909E13F0E631960116111D8A41BEF13
:1026300013F01DEF13F028EF13F0000E0501846F67
:10264000000E856F800E866F3F0E876F63EF27F059
:10265000ABBF39EF13F0A805000EA959800EAA5997
:102660007F0EAB59D8B037EF13F039EF13F04AEFC4
:1026700013F09BBF48EF13F09805000E9959800E98
:102680009A597F0E9B59D8A048EF13F04AEF13F0E8
:1026900066EF13F084C501F585C502F586C503F51F
:1026A00087C504F588C505F589C506F58AC507F50A
:1026B0008BC508F5C4EC29F001C584F502C585F584
:1026C00003C586F504C587F563EF27F0000E506F4C
:1026D000000E516F000E526F000E536F63BF75EF07
:1026E00013F073EF13F020EF14F09BBF81EF13F0A2
:1026F000800E9A5D4B0E9B59D8A081EF13F083EFAB
:1027000013F08DEF13F0020E506F000E516F000E9C
:10271000526F000E536F20EF14F09BBF99EF13F030
:10272000800E9A5D3F0E9B59D8A099EF13F09BEF56
:1027300013F020EF14F0170E4B6E98C64CF599C6A7
:102740004DF59AC64EF59BC64FF54B66AAEF13F0B2
:10275000B2EF13F04F344F324E324D324C324B2EDB
:10276000A5EF13F0810E4C240601A06FFF0E4D2043
:10277000A16FFF0E4E20A26FFF0E4F20A36FA0513E
:1027800017084B6E98C64CF599C64DF59AC64EF58E
:102790009BC64FF54B66CFEF13F0D7EF13F04F34D6
:1027A0004F324E324D324C324B2ECAEF13F04CC5E5
:1027B000ACF64DC5ADF64EC5AEF64FC5AFF606014B
:1027C000A05117084B6EACC64CF5ADC64DF5AEC664
:1027D0004EF5AFC64FF54B2AF3EF13F0D8904C36B9
:1027E0004D364E364F364B2EEEEF13F098514C18B7
:1027F0000DE199514D180AE19A514E1807E19B518C
:102800004F18D8A406EF14F008EF14F020EF14F0DE
:10281000010EAC154B6E000EAD154C6E000EAE15D4
:102820004D6E000EAF154E6E4B500208506F000EED
:102830004C54516F000E4D54526F000E4E54536F56
:10284000800E9A1909E17F0E9B1998119911D8A44D
:102850002CEF14F02EEF14F09AEF14F0800EAA195A
:1028600009E13F0EAB19A811A911D8A43AEF14F051
:102870003CEF14F047EF14F0000E0501846F000EDA
:10288000856F800E866F3F0E876F63EF27F0ABBFBB
:1028900056EF14F0A805000EA959800EAA593F0E54
:1028A000AB59D8A056EF14F058EF14F074EF14F0B1
:1028B00087BF5FEF14F05DEF14F06AEF14F0000EC5
:1028C0000501846F000E856F000E866F000E876F06
:1028D00063EF27F088C584F589C585F58AC586F537
:1028E0008BC587F563EF27F087BF7BEF14F079EF97
:1028F00014F08FEF14F088C501F589C502F58AC57B
:1029000003F58BC504F5BBEC34F001C584F502C5B5
:1029100085F503C586F504C587F563EF27F0000E3E
:102920000501846F000E856F000E866F000E876FA5
:1029300063EF27F0800E9A1909E13F0E9B19981159
:102940009911D8A4A6EF14F0A8EF14F0D5EF14F065
:1029500087BFAFEF14F0ADEF14F0CBEF14F0000E23
:10296000326E000E336E800E346E3F0E356E84C5AF
:1029700036F585C537F586C538F587C539F54BEC8D
:102980002EF032C584F533C585F534C586F535C5D9
:1029900087F563EF27F084C584F585C585F586C581
:1029A00086F587C587F563EF27F0400E87198411F8
:1029B00085118611D8A4DFEF14F0E1EF14F0FDEFDC
:1029C00014F084C511F585C512F586C513F587C5C4
:1029D00014F584C515F585C516F586C517F587C5A3
:1029E00018F524EC2CF011C584F512C585F513C536
:1029F00086F514C587F563EF27F03F0E871984111C
:102A000085118611D8A407EF15F009EF15F024EF12
:102A100015F063BF0EEF15F010EF15F024EF15F071
:102A200084C53EF585C53FF586C540F587C541F5AA
:102A300064EC27F03EC584F53FC585F540C586F5B5
:102A400041C587F563EF27F084C501F585C502F51B
:102A500086C503F587C504F5D7EC34F001C570F6DB
:102A600002C571F603C572F604C573F6800E060141
:102A7000AA190BE17F0EAB19A811A911D8B443EF25
:102A800015F045EF15F05EEF15F0A851A911AA1148
:102A9000AB11D8B44EEF15F050EF15F05EEF15F016
:102AA000800EAA1909E13F0EAB19A811A911D8A4EB
:102AB0005CEF15F05EEF15F01DEF16F070C6B4F682
:102AC00071C6B5F672C6B6F673C6B7F687BF6DEFB8
:102AD00015F06BEF15F087EF15F0000E326E000E5B
:102AE000336E800E346E3F0E356EB4C636F5B5C605
:102AF00037F5B6C638F5B7C639F54BEC2EF032C50A
:102B0000B4F633C5B5F634C5B6F635C5B7F6060125
:102B100063BF8FEF15F08DEF15F013EF16F0000E79
:102B2000A8254B6E000EA9214C6E800EAA214D6E79
:102B3000C00EAB214E6E50514B104F6E51514C1088
:102B4000506E52514D10516E53514E10526E4F50A7
:102B5000501051105210D8A4B0EF15F0B2EF15F08C
:102B6000F6EF15F0000E5F6E210E5E6EB4C62EF508
:102B7000B5C62FF5B6C630F5B7C631F5B4C62AF5D9
:102B8000B5C62BF5B6C62CF5B7C62DF578EC34F0E6
:102B90002AC532F52BC533F52CC534F52DC535F5D1
:102BA000B4C62EF5B5C62FF5B6C630F5B7C631F5A5
:102BB000B4C62AF5B5C62BF5B6C62CF5B7C62DF5A5
:102BC00078EC34F02AC536F52BC537F52CC538F529
:102BD0002DC539F54BEC2EF032C5B4F633C5B5F63C
:102BE00034C5B6F635C5B7F613EF16F050055111DA
:102BF00052115311D8A4FFEF15F001EF16F013EFA7
:102C000016F0B4C601F5B5C602F5B6C603F5B7C6EB
:102C100004F5BBEC34F001C5B4F602C5B5F603C546
:102C2000B6F604C5B7F6B4C684F5B5C685F5B6C61E
:102C300086F5B7C687F563EF27F0000E886F000EA4
:102C4000896F800E8A6F3F0E8B6F63BF2CEF16F07B
:102C50002AEF16F08EEF16F0505151115211531108
:102C6000D8A435EF16F037EF16F07BEF16F0000E14
:102C70005F6E210E5E6E84C52EF585C52FF586C567
:102C800030F587C531F584C52AF585C52BF586C590
:102C90002CF587C52DF578EC34F02AC532F52BC517
:102CA00033F52CC534F52DC535F584C52EF585C510
:102CB0002FF586C530F587C531F584C52AF585C55C
:102CC0002BF586C52CF587C52DF578EC34F02AC593
:102CD00036F52BC537F52CC538F52DC539F54BEC38
:102CE0002EF032C584F533C585F534C586F535C576
:102CF00087F563EF27F05005511152115311D8A4F5
:102D000084EF16F086EF16F08EEF16F0000E886F47
:102D1000000E896F800E8A6FBF0E8B6F9BBF9DEF79
:102D200016F09805000E9959000E9A594D0E9B59B0
:102D3000D8A09DEF16F09FEF16F024EF19F0ABBF6F
:102D4000B1EF16F0F80EA85DFF0EA9597F0EAA5933
:102D50003F0EAB59D8B0AFEF16F0B1EF16F024EF3D
:102D600017F087BFB6EF16F0B8EF16F0EEEF16F0DB
:102D7000600E156E420E166EA20E176E0D0E186EB8
:102D800088C611F589C612F58AC613F58BC614F5E7
:102D900024EC2CF011C5A4F612C5A5F613C5A6F6B1
:102DA00014C5A7F6A4C611F5A5C612F5A6C613F557
:102DB000A7C614F5600E156E420E166EA20E176EA3
:102DC0000D0E186E24EC2CF011C584F512C585F596
:102DD00013C586F514C587F563EF27F0CA0E156E87
:102DE000F20E166E490E176E710E186E88C611F52A
:102DF00089C612F58AC613F58BC614F524EC2CF09F
:102E000011C5A4F612C5A5F613C5A6F614C5A7F6F6
:102E1000A4C611F5A5C612F5A6C613F5A7C614F5E6
:102E2000CA0E156EF20E166E490E176E710E186EE2
:102E300024EC2CF011C584F512C585F513C586F573
:102E400014C587F563EF27F0ABBF34EF17F0080E1A
:102E5000A85D000EA959800EAA593F0EAB59D8A003
:102E600034EF17F036EF17F0B1EF17F087BF45EFEB
:102E700017F087518611851106E18405D8B043EF1C
:102E800017F045EF17F07BEF17F0600E156E420E4E
:102E9000166EA20E176E0D0E186E88C611F589C635
:102EA00012F58AC613F58BC614F524EC2CF011C567
:102EB000A4F612C5A5F613C5A6F614C5A7F6A4C6B2
:102EC00011F5A5C612F5A6C613F5A7C614F5600E32
:102ED000156E420E166EA20E176E0D0E186E24ECB5
:102EE0002CF011C584F512C585F513C586F514C5FA
:102EF00087F563EF27F0CA0E156EF20E166E490EB7
:102F0000176E710E186E88C611F589C612F58AC63D
:102F100013F58BC614F524EC2CF011C5A4F612C5DC
:102F2000A5F613C5A6F614C5A7F6A4C611F5A5C641
:102F300012F5A6C613F5A7C614F5CA0E156EF20E45
:102F4000166E490E176E710E186E24EC2CF011C51A
:102F500084F512C585F513C586F514C587F563EFAD
:102F600027F070C601F571C602F572C603F573C687
:102F700004F5000E056E000E066E800E076EBF0E85
:102F8000086EC4EC29F001C5B0F602C5B1F603C560
:102F9000B2F604C5B3F6000E156E000E166E800E66
:102FA000176E3E0E186EB0C611F5B1C612F5B2C658
:102FB00013F5B3C614F524EC2CF011C52EF512C58B
:102FC0002FF513C530F514C531F5AB0E2A6EAA0ED8
:102FD0002B6EAA0E2C6E3E0E2D6E78EC34F02AC5A8
:102FE000A4F62BC5A5F62CC5A6F62DC5A7F6B0C62A
:102FF00015F5B1C616F5B2C617F5B3C618F5B0C6C5
:1030000011F5B1C612F5B2C613F5B3C614F524EC2A
:103010002CF011C554F612C555F613C556F614C555
:1030200057F6B0C615F5B1C616F5B2C617F5B3C654
:1030300018F5A4C611F5A5C612F5A6C613F5A7C6C0
:1030400014F524EC2CF011C52EF512C52FF513C57F
:1030500030F514C531F5000E2A6E000E2B6E000EF1
:103060002C6E3F0E2D6E78EC34F02AC548F62BC539
:1030700049F62CC54AF62DC54BF654C611F555C672
:1030800012F556C613F557C614F548C615F549C6C8
:1030900016F54AC617F54BC618F524EC2CF011C5E9
:1030A00044F612C545F613C546F614C547F6B0C634
:1030B00011F5B1C612F5B2C613F5B3C614F5000E7C
:1030C000156EAA0E166EB80E176E3F0E186E24EC13
:1030D0002CF011C574F612C575F613C576F614C535
:1030E00077F6700E156EA50E166EEC0E176E360E78
:1030F000186EB0C611F5B1C612F5B2C613F5B3C657
:1031000014F524EC2CF011C52AF512C52BF513C5C6
:103110002CF514C52DF53B0E156EAA0E166EB80EC5
:10312000176E3F0E186E44C611F545C612F546C619
:1031300013F547C614F524EC2CF011C52EF512C575
:103140002FF513C530F514C531F578EC34F02AC5E8
:1031500078F62BC579F62CC57AF62DC57BF674C6A4
:1031600001F575C602F576C603F577C604F578C68F
:1031700005F579C606F57AC607F57BC608F5C4ECF1
:1031800029F001C580F602C581F603C582F604C5A3
:1031900083F680C6B8F681C6B9F682C6BAF683C68B
:1031A000BBF6B8C690F6B9C691F6BAC692F6BBC6DB
:1031B00093F6000E06019015B86FF00E9115B96FD9
:1031C000FF0E9215BA6FFF0E9315BB6FB8C680F64F
:1031D000B9C681F6BAC682F6BBC683F674C62EF5AA
:1031E00075C62FF576C630F577C631F580C62AF557
:1031F00081C62BF582C62CF583C62DF578EC34F00C
:103200002AC594F62BC595F62CC596F62DC597F6CE
:1032100078C62AF579C62BF57AC62CF57BC62DF52E
:1032200094C62EF595C62FF596C630F597C631F59E
:1032300078EC34F02AC51CF62BC51DF62CC51EF6FD
:103240002DC51FF696EF20F0000E7C6F000E7D6FEF
:10325000000E7E6F000E7F6FABBF3AEF19F0AB51DF
:1032600007E1800EAA5DD8B038EF19F03AEF19F0F7
:103270006DEF19F070C611F571C612F572C613F52F
:1032800073C614F5000E156E000E166E800E176EC6
:103290004B0E186E24EC2CF011C570F612C571F6A9
:1032A00013C572F614C573F6E80E06017C27FF0EEF
:1032B0007D23FF0E7E23FF0E7F2370C6B8F671C6F6
:1032C000B9F672C6BAF673C6BBF6B8C6A8F6B9C6E2
:1032D000A9F6BAC6AAF6BBC6ABF6170E4B6EA8C6C1
:1032E0004CF5A9C64DF5AAC64EF5ABC64FF54B66D3
:1032F0007CEF19F084EF19F04F344F324E324D32DB
:103300004C324B2E77EF19F0810E4C24506EFF0E8D
:103310004D20516EFF0E4E20526EFF0E4F20536E09
:10332000505006017C2751507D2352507E2353502C
:103330007F23FF0EA815AC6FFF0EA915AD6F7F0E92
:10334000AA15AE6F000EAB15AF6F000EAC11A86FD3
:10335000000EAD11A96F800EAE11AA6F3F0EAF1116
:10336000AB6FAFBFC3EF19F0AF510BE1720EAC5DA5
:10337000C40EAD591C0EAE59D8B0C1EF19F0C3EF51
:1033800019F0CDEF19F0000EA06F000EA16F000E26
:10339000A26F000EA36FFFEF19F0AFBFDFEF19F0C0
:1033A000AF510BE1D70EAC5DB30EAD595D0EAE590A
:1033B000D8B0DDEF19F0DFEF19F0E9EF19F0010EE9
:1033C000A06F000EA16F000EA26F000EA36FFFEFA3
:1033D00019F0000EA06F000EA16F000EA26F000E7C
:1033E000A36F010E7C27000E7D237E237F23000E1A
:1033F000A827000EA923800EAA23FF0EAB23A8C680
:10340000B8F6A9C6B9F6AAC6BAF6ABC6BBF6B8C630
:1034100070F6B9C671F6BAC672F6BBC673F670C658
:103420002AF571C62BF572C62CF573C62DF5A0C60C
:103430004BF5A1C64CF5D8904B364C36D8904B3650
:103440004C36690E4B24F66E250E4C20F76EF86A4A
:10345000000EF82209006100D4F32EF50900610086
:10346000D4F32FF509006100D4F330F50A006100B0
:10347000D4F331F578EC34F02AC574F62BC575F623
:103480002CC576F62DC577F6000E326E000E336E23
:10349000800E346E3F0E356E70C605F571C606F5AA
:1034A00072C607F573C608F5A0C64BF5A1C64CF564
:1034B000D8904B364C36D8904B364C36690E4B2450
:1034C000F66E250E4C20F76EF86A000EF822090001
:1034D0006100D4F301F509006100D4F302F509009D
:1034E0006100D4F303F50A006100D4F304F5C4ECE1
:1034F00029F001C536F502C537F503C538F504C511
:1035000039F54BEC2EF032C578F633C579F634C573
:103510007AF635C57BF674C611F575C612F576C612
:1035200013F577C614F578C615F579C616F57AC67B
:1035300017F57BC618F524EC2CF011C55CF612C506
:103540005DF613C55EF614C55FF65CC66CF65DC627
:103550006DF65EC66EF65FC66FF66CC6B8F66DC6E3
:10356000B9F66EC6BAF66FC6BBF6B8C690F6B9C65F
:1035700091F6BAC692F6BBC693F6000E06019015F8
:10358000B86FF00E9115B96FFF0E9215BA6FFF0E5E
:103590009315BB6FB8C66CF6B9C66DF6BAC66EF6B3
:1035A000BBC66FF6A8C64BF5A9C64CF5AAC64DF525
:1035B000ABC64EF54E344E324D324C324B32000ECD
:1035C0004B144F6EF00E4C14506EFF0E4D14516E96
:1035D000FF0E4E14526E000E4F10906F000E5010E2
:1035E000916F000E5110926F200E5210936FA0C673
:1035F0004BF5A1C64CF5A2C64DF5A3C64EF5150E6A
:10360000D8904B364C364D364E36E82E00EF1BF038
:1036100090514B244F6E91514C20506E92514D2041
:10362000516E93514E20526E000E4F24B86F000E13
:103630005020B96F400E5120BA6F000E5220BB6F60
:10364000B8C668F6B9C669F6BAC66AF6BBC66BF6FE
:10365000A0C64BF5A1C64CF5D8904B364C36D89049
:103660004B364C36690E4B24F66E250E4C20F76E09
:10367000F86A000EF82209006100D4F32EF5090063
:103680006100D4F32FF509006100D4F330F50A008E
:103690006100D4F331F568C62AF569C62BF56AC610
:1036A0002CF56BC62DF578EC34F02AC594F62BC5B5
:1036B00095F62CC596F62DC597F670C62AF571C6F7
:1036C0002BF572C62CF573C62DF594C62EF595C64E
:1036D0002FF596C630F597C631F578EC34F02AC54B
:1036E00034F62BC535F62CC536F62DC537F668C62B
:1036F00015F569C616F56AC617F56BC618F56CC6DA
:1037000011F56DC612F56EC613F56FC614F524ECEF
:103710002CF011C52EF512C52FF513C530F514C5C3
:1037200031F574C62AF575C62BF576C62CF577C625
:103730002DF578EC34F02AC594F62BC595F62CC5FA
:1037400096F62DC597F634C615F535C616F536C668
:1037500017F537C618F56CC611F56DC612F56EC6AD
:1037600013F56FC614F524EC2CF011C52EF512C517
:103770002FF513C530F514C531F594C62AF595C655
:103780002BF596C62CF597C62DF578EC34F02AC5A6
:1037900054F62BC555F62CC556F62DC557F654C60E
:1037A00011F555C612F556C613F557C614F578C669
:1037B00015F579C616F57AC617F57BC618F524EC0B
:1037C0002CF011C530F612C531F613C532F614C50A
:1037D00033F65CC611F55DC612F55EC613F55FC61D
:1037E00014F55CC615F55DC616F55EC617F55FC621
:1037F00018F524EC2CF011C58CF612C58DF613C506
:103800008EF614C58FF6550E056E320E066E6C0ED2
:10381000076E3E0E086E420E156EF10E166E530EBA
:10382000176E3E0E186E8CC611F58DC612F58EC63B
:1038300013F58FC614F524EC2CF011C501F512C553
:1038400002F513C503F514C504F5C4EC29F001C550
:10385000A4F602C5A5F603C5A6F604C5A7F6050E8F
:10386000056EA30E066E8B0E076E3E0E086E8CC69E
:1038700015F58DC616F58EC617F58FC618F5A4C6B4
:1038800011F5A5C612F5A6C613F5A7C614F524ECC6
:103890002CF011C501F512C502F513C503F514C5C9
:1038A00004F5C4EC29F001C554F602C555F603C56C
:1038B00056F604C557F6AB0E056EAA0E066EAA0E96
:1038C000076E3E0E086E8CC615F58DC616F58EC6B3
:1038D00017F58FC618F554C611F555C612F556C61C
:1038E00013F557C614F524EC2CF011C501F512C5DB
:1038F00002F513C503F514C504F5C4EC29F001C5A0
:1039000048F602C549F603C54AF604C54BF6B70E9C
:10391000056E6D0E066EDB0E076E3E0E086E8CC6D3
:1039200015F58DC616F58EC617F58FC618F548C65F
:1039300011F549C612F54AC613F54BC614F524EC29
:103940002CF011C501F512C502F513C503F514C518
:1039500004F5C4EC29F001C538F602C539F603C5F3
:103960003AF604C53BF69A0E056E990E066E190ED0
:10397000076E3F0E086E8CC615F58DC616F58EC601
:1039800017F58FC618F538C611F539C612F53AC6BF
:1039900013F53BC614F524EC2CF011C501F512C546
:1039A00002F513C503F514C504F5C4EC29F001C5EF
:1039B00000F602C501F603C502F604C503F68CC67F
:1039C00015F58DC616F58EC617F58FC618F58CC67B
:1039D00011F58DC612F58EC613F58FC614F524ECBD
:1039E0002CF011C504F612C505F613C506F614C56C
:1039F00007F600C611F501C612F502C613F503C697
:103A000014F504C615F505C616F506C617F507C65E
:103A100018F524EC2CF011C54CF612C54DF613C563
:103A20004EF614C54FF630C615F531C616F532C63A
:103A300017F533C618F55CC605F55DC606F55EC616
:103A400007F55FC608F56CC601F56DC602F56EC6D2
:103A500003F56FC604F5C4EC29F001C511F502C5E4
:103A600012F503C513F504C514F524EC2CF011C5AB
:103A700058F612C559F613C55AF614C55BF64CC66E
:103A800001F54DC602F54EC603F54FC604F558C6FE
:103A900005F559C606F55AC607F55BC608F5C4EC28
:103AA00029F001C54CF602C54DF603C54EF604C516
:103AB0004FF66CC611F56DC612F56EC613F56FC6DE
:103AC00014F56CC615F56DC616F56EC617F56FC6FE
:103AD00018F524EC2CF011C58CF612C58DF613C523
:103AE0008EF614C58FF6000E056E000E066E400EA3
:103AF000076E400E086E8CC601F58DC602F58EC6A7
:103B000003F58FC604F5C4EC29F001C558F602C5CB
:103B100059F603C55AF604C55BF658C601F559C6F1
:103B200002F55AC603F55BC604F54CC605F54DC64D
:103B300006F54EC607F54FC608F5C4EC29F001C5D9
:103B400068F602C569F603C56AF604C56BF668C671
:103B5000B8F669C6B9F66AC6BAF66BC6BBF6B8C699
:103B600090F6B9C691F6BAC692F6BBC693F6000EA9
:103B700006019015B86FF00E9115B96FFF0E9215F2
:103B8000BA6FFF0E9315BB6FB8C668F6B9C669F673
:103B9000BAC66AF6BBC66BF6000E056E000E066E60
:103BA000400E076EC00E086E68C601F569C602F5C4
:103BB0006AC603F56BC604F5C4EC29F001C53CF6F2
:103BC00002C53DF603C53EF604C53FF68CC62EF58C
:103BD0008DC62FF58EC630F58FC631F53CC62AF559
:103BE0003DC62BF53EC62CF53FC62DF578EC34F0DE
:103BF0002AC540F62BC541F62CC542F62DC543F625
:103C00004CC62AF54DC62BF54EC62CF54FC62DF5E4
:103C100040C62EF541C62FF542C630F543C631F5F4
:103C200078EC34F02AC534F62BC535F62CC536F6BB
:103C30002DC537F66CC611F56DC612F56EC613F5B7
:103C40006FC614F568C615F569C616F56AC617F588
:103C50006BC618F524EC2CF011C574F612C575F678
:103C600013C576F614C577F668C615F569C616F558
:103C70006AC617F56BC618F530C611F531C612F5D0
:103C800032C613F533C614F524EC2CF011C501F53A
:103C900012C502F513C503F514C504F55CC615F588
:103CA0005DC616F55EC617F55FC618F534C611F584
:103CB00035C612F536C613F537C614F524EC2CF0CC
:103CC00011C505F512C506F513C507F514C508F5A8
:103CD000C4EC29F001C578F602C579F603C57AF679
:103CE00004C57BF674C601F575C602F576C603F504
:103CF00077C604F578C605F579C606F57AC607F5E0
:103D00007BC608F5C4EC29F001C59CF602C59DF6FA
:103D100003C59EF604C59FF69CC6B8F69DC6B9F6C7
:103D20009EC6BAF69FC6BBF6B8C690F6B9C691F65F
:103D3000BAC692F6BBC693F6000E06019015B86F90
:103D4000F00E9115B96FFF0E9215BA6FFF0E931515
:103D5000BB6FB8C69CF6B9C69DF6BAC69EF6BBC682
:103D60009FF674C62EF575C62FF576C630F577C664
:103D700031F59CC62AF59DC62BF59EC62CF59FC62F
:103D80002DF578EC34F02AC594F62BC595F62CC5A4
:103D900096F62DC597F678C62AF579C62BF57AC61C
:103DA0002CF57BC62DF594C62EF595C62FF596C637
:103DB00030F597C631F578EC34F02AC564F62BC59A
:103DC00065F62CC566F62DC567F69CC611F59DC631
:103DD00012F59EC613F59FC614F5000E156E400E23
:103DE000166E760E176E3F0E186E24EC2CF011C571
:103DF00020F612C521F613C522F614C523F64F0E80
:103E0000156E380E166E760E176E3F0E186E64C65F
:103E100011F565C612F566C613F567C614F524ECF0
:103E20002CF011C505F512C506F513C507F514C527
:103E300008F5C60E156E230E166EF60E176EB80E2A
:103E4000186E9CC611F59DC612F59EC613F59FC649
:103E500014F524EC2CF011C501F512C502F513C5BB
:103E600003F514C504F5C4EC29F001C558F602C5E4
:103E700059F603C55AF604C55BF658C601F559C68E
:103E800002F55AC603F55BC604F5A0C64BF5A1C6FC
:103E90004CF5D8904B364C36D8904B364C36010EFC
:103EA0004B24F66E250E4C20F76EF86A000EF822B1
:103EB00009006100D4F305F509006100D4F306F5AB
:103EC00009006100D4F307F50A006100D4F308F596
:103ED000C4EC29F001C524F602C525F603C526F673
:103EE00004C527F67CC601F57DC602F57EC603F53E
:103EF0007FC604F5010E32EC31F001C5B0F602C503
:103F0000B1F603C5B2F604C5B3F624C605F525C659
:103F100006F526C607F527C608F520C601F521C611
:103F200002F522C603F523C604F5C4EC29F001C549
:103F300058F602C559F603C55AF604C55BF6A0C685
:103F40004BF5A1C64CF5D8904B364C36D8904B3635
:103F50004C36090E4B24F66E250E4C20F76EF86A8F
:103F6000000EF82209006100D4F305F50900610094
:103F7000D4F306F509006100D4F307F50A006100E7
:103F8000D4F308F558C601F559C602F55AC603F52B
:103F90005BC604F5C4EC29F001C508F602C509F6B4
:103FA00003C50AF604C50BF608C601F509C602F5F5
:103FB0000AC603F50BC604F5B0C605F5B1C606F58D
:103FC000B2C607F5B3C608F5C4EC29F001C580F602
:103FD00002C581F603C582F604C583F680C6B8F62D
:103FE00081C6B9F682C6BAF683C6BBF6B8C690F6E5
:103FF000B9C691F6BAC692F6BBC693F6000E060194
:104000009015B86FF00E9115B96FFF0E9215BA6F3B
:10401000FF0E9315BB6FB8C680F6B9C681F6BAC657
:1040200082F6BBC683F6B0C62EF5B1C62FF5B2C672
:1040300030F5B3C631F580C62AF581C62BF582C6A8
:104040002CF583C62DF578EC34F02AC594F62BC5F3
:1040500095F62CC596F62DC597F6A0C64BF5A1C6CC
:104060004CF5D8904B364C36D8904B364C36090E22
:104070004B24F66E250E4C20F76EF86A000EF822DF
:1040800009006100D4F32EF509006100D4F32FF587
:1040900009006100D4F330F50A006100D4F331F572
:1040A00094C62AF595C62BF596C62CF597C62DF520
:1040B00078EC34F02AC540F62BC541F62CC542F603
:1040C0002DC543F620C62EF521C62FF522C630F5A4
:1040D00023C631F540C62AF541C62BF542C62CF55C
:1040E00043C62DF578EC34F02AC50CF62BC50DF639
:1040F0002CC50EF62DC50FF624C62AF525C62BF5C0
:1041000026C62CF527C62DF50CC62EF50DC62FF5A7
:104110000EC630F50FC631F578EC34F02AC51CF622
:104120002BC51DF62CC51EF62DC51FF688C5B8F685
:1041300089C5B9F68AC5BAF68BC5BBF6B8C690F67E
:10414000B9C691F6BAC692F6BBC693F6000E060142
:104150009015B86FF00E9115B96FFF0E9215BA6FEA
:10416000FF0E9315BB6FB8C628F6B9C629F6BAC6B6
:104170002AF6BBC62BF680C615F581C616F582C693
:1041800017F583C618F528C62EF529C62FF52AC6B9
:1041900030F52BC631F588C52AF589C52BF58AC5BA
:1041A0002CF58BC52DF578EC34F02AC511F52BC50F
:1041B00012F52CC513F52DC514F524EC2CF011C502
:1041C00010F612C511F613C512F614C513F610C673
:1041D00001F511C602F512C603F513C604F51CC697
:1041E00015F51DC616F51EC617F51FC618F588C5A8
:1041F00011F589C512F58AC513F58BC514F524ECA4
:104200002CF011C505F512C506F513C507F514C543
:1042100008F5C4EC29F001C564F602C565F603C5CE
:1042200066F604C567F628C611F529C612F52AC632
:1042300013F52BC614F580C615F581C616F582C692
:1042400017F583C618F524EC2CF011C59CF612C5A1
:104250009DF613C59EF614C59FF664C601F565C6A6
:1042600002F566C603F567C604F59CC605F59DC64E
:1042700006F59EC607F59FC608F5C4EC29F001C5F2
:10428000B4F602C5B5F603C5B6F604C5B7F6B4C6AE
:10429000B8F6B5C6B9F6B6C6BAF6B7C6BBF6B8C66E
:1042A000ACF6B9C6ADF6BAC6AEF6BBC6AFF60601F9
:1042B000AFBF67EF21F0AC05000EAD59000EAE594F
:1042C000430EAF59D8A067EF21F069EF21F09FEFBF
:1042D00021F0CA0E156EF20E166E490E176E710E93
:1042E000186E88C611F589C612F58AC613F58BC6F5
:1042F00014F524EC2CF011C5A4F612C5A5F613C5CF
:10430000A6F614C5A7F6A4C611F5A5C612F5A6C64D
:1043100013F5A7C614F5CA0E156EF20E166E490EE9
:10432000176E710E186E24EC2CF011C584F512C5B1
:1043300085F513C586F514C587F563EF27F0430EA1
:10434000AF19AC11AD11AE11D8A4A9EF21F0ABEFAC
:1043500021F01EEF22F09CC62EF59DC62FF59EC6BD
:1043600030F59FC631F5B4C62AF5B5C62BF5B6C6ED
:104370002CF5B7C62DF578EC34F02AC532F52BC5EF
:1043800033F52CC534F52DC535F53C0E056EAA0E5A
:10439000066E380E076E330E086E64C601F565C6EC
:1043A00002F566C603F567C604F5C4EC29F001C53D
:1043B00036F502C537F503C538F504C539F51EECE9
:1043C00033F0D8B0E6EF21F0E8EF21F0E0EF22F093
:1043D000CA0E156EF20E166E490E176E710E186E1D
:1043E00088C611F589C612F58AC613F58BC614F571
:1043F00024EC2CF011C5A4F612C5A5F613C5A6F63B
:1044000014C5A7F6A4C611F5A5C612F5A6C613F5E0
:10441000A7C614F5CA0E156EF20E166E490E176E6B
:10442000710E186E24EC2CF011C584F512C585F5BB
:1044300013C586F514C587F563EF27F0FF0EAC159D
:104440004B6EFF0EAD154C6EFF0EAE154D6E7F0E12
:10445000AF154E6E4EBE39EF22F04B04000E4C5895
:10446000160E4D58430E4E58D8A039EF22F03BEFB0
:1044700022F071EF22F0600E156E420E166EA20E43
:10448000176E0D0E186E88C611F589C612F58AC60C
:1044900013F58BC614F524EC2CF011C5A4F612C547
:1044A000A5F613C5A6F614C5A7F6A4C611F5A5C6AC
:1044B00012F5A6C613F5A7C614F5600E156E420ECA
:1044C000166EA20E176E0D0E186E24EC2CF011C590
:1044D00084F512C585F513C586F514C587F563EF18
:1044E00027F0160EAE1909E1C30EAF19AC11AD11CC
:1044F000D8A47DEF22F07FEF22F0E0EF22F09CC6FF
:104500002EF59DC62FF59EC630F59FC631F5B4C673
:104510002AF5B5C62BF5B6C62CF5B7C62DF578EC41
:1045200034F02AC532F52BC533F52CC534F52DC52D
:1045300035F564C636F565C637F566C638F567C61F
:1045400039F51EEC33F0D8A0A8EF22F0AAEF22F044
:10455000E0EF22F0600E156E420E166EA20E176E80
:104560000D0E186E88C611F589C612F58AC613F5A8
:104570008BC614F524EC2CF011C5A4F612C5A5F6D3
:1045800013C5A6F614C5A7F6A4C611F5A5C612F55F
:10459000A6C613F5A7C614F5600E156E420E166E6C
:1045A000A20E176E0D0E186E24EC2CF011C584F5BA
:1045B00012C585F513C586F514C587F563EF27F099
:1045C000FF0E0601AC152C6FFF0EAD152D6FFF0E03
:1045D000AE152E6F7F0EAF152F6F170E4B6E2CC6BC
:1045E0004CF52DC64DF52EC64EF52FC64FF54B6634
:1045F000FCEF22F004EF23F04F344F324E324D32B5
:104600004C324B2EF7EF22F0810E4C240601A06FA6
:10461000FF0E4D20A16FFF0E4E20A26FFF0E4F2008
:10462000A36F000E7C6F000E7D6F000E7E6F000E7C
:104630007F6F2FBF28EF23F02C05000E2D59000EA1
:104640002E593F0E2F59D8A028EF23F02AEF23F040
:104650000AEF24F0A0C64BF5010E4B26000E4C6E5F
:10466000000E4D6E800E4E6E000E4F6E4B663BEF91
:1046700023F043EF23F04F344F324E324D324C3261
:104680004B2E36EF23F00601AC514C247C6FAD511C
:104690004D207D6FAE514E207E6FAF514F207F6F0A
:1046A000810E4B6EFF0E4C6EFF0E4D6EFF0E4E6E6A
:1046B000170E4F6E7CC650F57DC651F57EC652F57D
:1046C0007FC653F54F6667EF23F06FEF23F0533447
:1046D00053325232513250324F2E62EF23F050504B
:1046E0004B240601A06F000E4C20A16F000E4D2040
:1046F000A26F000E4E20A36FA0C64BF5FF0E4C6EAE
:10470000FF0E4D6E7F0E4E6E000E4F6E4B668BEFA2
:1047100023F093EF23F04F344F324E324D324C3270
:104720004B2E86EF23F04C1C506E4D1C516E4E1CD0
:10473000526E4F1C536E06017C515014B86F7D5160
:104740005114B96F7E515214BA6F7F515314BB6F1D
:10475000B8C6B0F6B9C6B1F6BAC6B2F6BBC6B3F6BD
:10476000A05117084B6EFF0E7C154C6EFF0E7D1589
:104770004D6E7F0E7E154E6E000E7F154F6E000E35
:104780004C10506E000E4D10516E800E4E10526E39
:10479000000E4F10536E4B66D0EF23F0D8EF23F08E
:1047A000533453325232513250324B2ECBEF23F02E
:1047B00050C57CF651C57DF652C57EF653C57FF6D1
:1047C0000601AFBFE8EF23F0E6EF23F0F0EF23F0B0
:1047D0007F1F7E1F7D1F7C6D000E7D237E237F2328
:1047E0009CC62AF59DC62BF59EC62CF59FC62DF5B9
:1047F000B0C62EF5B1C62FF5B2C630F5B3C631F549
:1048000078EC34F02AC59CF62BC59DF62CC59EF697
:104810002DC59FF664C601F565C602F566C603F5AB
:1048200067C604F59CC605F59DC606F59EC607F548
:104830009FC608F5C4EC29F001C5B0F602C5B1F673
:1048400003C5B2F604C5B3F6B0C6B8F6B1C6B9F63C
:10485000B2C6BAF6B3C6BBF6B8C690F6B9C691F6FC
:10486000BAC692F6BBC693F6000E06019015B86F55
:10487000800E9115B96FFF0E9215BA6FFF0E93154A
:10488000BB6FB8C6B0F6B9C6B1F6BAC6B2F6BBC60B
:10489000B3F6B0C611F5B1C612F5B2C613F5B3C67C
:1048A00014F5000E156E720E166E310E176E3F0E59
:1048B000186E24EC2CF011C574F612C575F613C5EC
:1048C00076F614C577F69CC62EF59DC62FF59EC6C6
:1048D00030F59FC631F5B0C62AF5B1C62BF5B2C684
:1048E0002CF5B3C62DF578EC34F02AC594F62BC51B
:1048F00095F62CC596F62DC597F6180E156E720E08
:10490000166E310E176E3F0E186E94C62EF595C6B4
:104910002FF596C630F597C631F564C62AF565C6FB
:104920002BF566C62CF567C62DF578EC34F02AC554
:1049300011F52BC512F52CC513F52DC514F524EC76
:104940002CF011C514F612C515F613C516F614C5CC
:1049500017F614C601F515C602F516C603F517C6F7
:1049600004F58C0E156EBE0E166EBF0E176E350E4C
:10497000186EB0C611F5B1C612F5B2C613F5B3C6BE
:1049800014F524EC2CF011C505F512C506F513C578
:1049900007F514C508F5C4EC29F001C578F602C581
:1049A00079F603C57AF604C57BF674C601F575C6BB
:1049B00002F576C603F577C604F578C605F579C61F
:1049C00006F57AC607F57BC608F5C4EC29F001C5E3
:1049D000B4F602C5B5F603C5B6F604C5B7F674C697
:1049E0002EF575C62FF576C630F577C631F5B4C607
:1049F0002AF5B5C62BF5B6C62CF5B7C62DF578EC5D
:104A000034F02AC594F62BC595F62CC596F62DC51F
:104A100097F678C62AF579C62BF57AC62CF57BC6AB
:104A20002DF594C62EF595C62FF596C630F597C68A
:104A300031F578EC34F02AC544F62BC545F62CC583
:104A400046F62DC547F6B4C611F5B5C612F5B6C67D
:104A500013F5B7C614F5B4C615F5B5C616F5B6C642
:104A600017F5B7C618F524EC2CF011C5B0F612C531
:104A7000B1F613C5B2F614C5B3F60E0E056EEA0E06
:104A8000066EDD0E076EB50E086E4C0E156EBB0E73
:104A9000166E310E176E330E186EB0C611F5B1C614
:104AA00012F5B2C613F5B3C614F524EC2CF011C5FB
:104AB00001F512C502F513C503F514C504F5C4ECE0
:104AC00029F001C5A4F602C5A5F603C5A6F604C5DE
:104AD000A7F6550E056EB30E066E8A0E076E380EDB
:104AE000086EB0C615F5B1C616F5B2C617F5B3C651
:104AF00018F5A4C611F5A5C612F5A6C613F5A7C6E6
:104B000014F524EC2CF011C501F512C502F513C5FE
:104B100003F514C504F5C4EC29F001C554F602C52B
:104B200055F603C556F604C557F6610E056E0B0E15
:104B3000066E360E076EBB0E086EB0C615F5B1C612
:104B400016F5B2C617F5B3C618F554C611F555C615
:104B500012F556C613F557C614F524EC2CF011C502
:104B600001F512C502F513C503F514C504F5C4EC2F
:104B700029F001C548F602C549F603C54AF604C541
:104B80004BF6AB0E056EAA0E066E2A0E076E3E0E93
:104B9000086EB0C615F5B1C616F5B2C617F5B3C6A0
:104BA00018F548C611F549C612F54AC613F54BC6A5
:104BB00014F524EC2CF011C501F512C502F513C54E
:104BC00003F514C504F5C4EC29F001C538F602C597
:104BD00039F603C53AF604C53BF6B4C62AF5B5C6A0
:104BE0002BF5B6C62CF5B7C62DF5B0C615F5B1C672
:104BF00016F5B2C617F5B3C618F538C611F539C69D
:104C000012F53AC613F53BC614F524EC2CF011C589
:104C10002EF512C52FF513C530F514C531F578EC16
:104C200034F02AC580F62BC581F62CC582F62DC539
:104C300083F6000E056E000E066E000E076EC00EA7
:104C4000086E80C601F581C602F582C603F583C6EB
:104C500004F5C4EC29F001C536F502C537F503C5E6
:104C600038F504C539F580C615F581C616F582C636
:104C700017F583C618F5B4C611F5B5C612F5B6C654
:104C800013F5B7C614F524EC2CF011C532F512C596
:104C900033F513C534F514C535F54BEC2EF032C59C
:104CA0003CF633C53DF634C53EF635C53FF644C641
:104CB00005F545C606F546C607F547C608F544C6D8
:104CC00015F545C616F546C617F547C618F5B4C618
:104CD00011F5B5C612F5B6C613F5B7C614F524EC32
:104CE0002CF011C501F512C502F513C503F514C565
:104CF00004F5C4EC29F001C518F602C519F603C580
:104D00001AF604C51BF63CC62AF53DC62BF53EC671
:104D10002CF53FC62DF518C62EF519C62FF51AC667
:104D200030F51BC631F578EC34F02AC54CF62BC5AE
:104D30004DF62CC54EF62DC54FF6B4C62EF5B5C6AC
:104D40002FF5B6C630F5B7C631F54CC62AF54DC6B7
:104D50002BF54EC62CF54FC62DF578EC34F02AC550
:104D600094F62BC595F62CC596F62DC597F6000E34
:104D70002A6E000E2B6E800E2C6E3F0E2D6E94C68A
:104D80002EF595C62FF596C630F597C631F578EC19
:104D900034F02AC5B4F62BC5B5F62CC5B6F62DC52C
:104DA000B7F6B4C6B8F6B5C6B9F6B6C6BAF6B7C65B
:104DB000BBF6B8C6ACF6B9C6ADF6BAC6AEF6BBC65B
:104DC000AFF67CC64BF57DC64CF57EC64DF57FC66D
:104DD0004EF5170ED8904B364C364D364E36E82EE3
:104DE000EAEF26F04B500601AC274C50AD234D5056
:104DF000AE234E50AF23170E4B6EACC64CF5ADC66E
:104E00004DF5AEC64EF5AFC64FF54B660AEF27F02F
:104E100012EF27F04F344F324E324D324C324B2E80
:104E200005EF27F04FBE21EF27F04F504E104D10E9
:104E300006E14C04D8B01FEF27F021EF27F039EF3F
:104E400027F0B4C62AF5B5C62BF5B6C62CF5B7C6FD
:104E50002DF57CC62EF57DC62FF518EC30F02AC551
:104E6000B4F62BC5B5F62CC5B6F62DC5B7F649EF89
:104E700027F0ACC6B8F6ADC6B9F6AEC6BAF6AFC640
:104E8000BBF6B8C6B4F6B9C6B5F6BAC6B6F6BBC672
:104E9000B7F688C611F589C612F58AC613F58BC612
:104EA00014F5B4C615F5B5C616F5B6C617F5B7C6EA
:104EB00018F524EC2CF011C584F512C585F513C541
:104EC00086F514C587F512003EC568F53FC569F53E
:104ED00040C56AF541C56BF568C580F569C581F5C2
:104EE0006AC582F56BC583F5000E05018015426E1B
:104EF000000E8115436E800E8215446E7F0E831561
:104F0000456E800E441809E17F0E4518421043108B
:104F1000D8A48DEF27F08FEF27F0BDEF27F03EC527
:104F200015F53FC516F540C517F541C518F53EC541
:104F300011F53FC512F540C513F541C514F524EC34
:104F40002CF011C501F512C502F513C503F514C502
:104F500004F53EC505F53FC506F540C507F541C555
:104F600008F5C4EC29F001C53EF502C53FF503C5BF
:104F700040F504C541F5C3EF29F083BFCCEF27F01E
:104F800083518211811106E18005D8B0CAEF27F064
:104F9000CCEF27F008EF28F0FF0E8015426EFF0ED1
:104FA0008115436EFF0E8215446E7F0E8315456E8C
:104FB0004250431044104510D8A4E1EF27F0E3EF2E
:104FC00027F0EDEF27F03EC53EF53FC53FF540C564
:104FD00040F541C541F5C3EF29F083BFF4EF27F059
:104FE000F2EF27F008EF28F0000E5F6E210E5E6EE4
:104FF0007D0E016E250E026E02EC35F001C53EF508
:1050000002C53FF503C540F504C541F5C3EF29F0DE
:10501000170E426E80C543F581C544F582C545F53E
:1050200083C546F5426617EF28F01FEF28F0463497
:105030004632453244324332422E12EF28F043C505
:1050400078F544C579F545C57AF546C57BF5050182
:10505000785179117A117B11D8A431EF28F033EF10
:1050600028F063EF28F0000E646F000E656F000EED
:10507000666F000E676F48EF28F0D8908037813751
:1050800082378337010E6427000E6523662367236A
:1050900082AF4DEF28F04FEF28F03DEF28F0FF0EE4
:1050A0006425426EFF0E6521436EFF0E6621446E3D
:1050B000FF0E6721456E4250785F4350795B445044
:1050C0007A5B45507B5B810E7827FF0E7923FF0EBC
:1050D0007A23FF0E7B23FF0E8015426EFF0E811593
:1050E000436E7F0E8215446E000E8315456E000ED2
:1050F0004210806F000E4310816F800E4410826F4B
:10510000000E4510836F78A188EF28F08AEF28F011
:1051100092EF28F080518027815181238251822390
:10512000835183237B357B337A33793378338051D2
:105130008027815181238251822383518323000E52
:10514000606F000E616F000E626F000E636F60C5CE
:105150006CF561C56DF562C56EF563C56FF5000E42
:105160007C6F000E7D6F000E7E6F010E7F6F01EF72
:1051700029F060517C25706F61517D21716F625102
:105180007E21726F63517F21736F7051805D715109
:105190008159725182598351800A426E7351800A3B
:1051A0004258D8A0D6EF28F0D8EF28F0F4EF28F036
:1051B00070517C25606F71517D21616F72517E212C
:1051C000626F73517F21636F7051805F7151815B9A
:1051D0007251825B7351835B7C516C277D516D23CF
:1051E0007E516E237F516F2380518027815181230F
:1051F0008251822383518323D8907F337E337D3342
:105200007C337C517D117E117F11D8A40AEF29F0E7
:105210000CEF29F0B9EF28F0805181118211831130
:10522000D8B415EF29F017EF29F078EF29F0000E28
:10523000746F000E756F800E766F3F0E776F74C5BA
:1052400032F575C533F576C534F577C535F5000EFD
:10525000366E000E376E800E386E3F0E396E1EECC5
:1052600033F0D8A036EF29F038EF29F078EF29F0A5
:10527000000E0501746F000E756F800E766F3F0E85
:10528000776F000E326E000E336E800E346E3F0E5E
:10529000356E74C536F575C537F576C538F577C5FD
:1052A00039F51EEC33F0D8B058EF29F05AEF29F059
:1052B00063EF29F0020E05016C27000E6D236E23AB
:1052C0006F2378EF29F0010E05016C15426E000E78
:1052D0006D15436E000E6E15446E000E6F15456E13
:1052E00042506C2743506D2344506E2345506F232A
:1052F0006CC542F56DC543F56EC544F56FC545F502
:1053000045344532443243324232000E42240501D4
:10531000806F000E4320816F000E4420826F3F0E8D
:105320004520836F78C542F579C543F57AC544F5C4
:105330007BC545F5170ED890423643364436453680
:10534000E82E9BEF29F042508027435081234450A0
:1053500082234550832380C568F581C569F582C5E0
:105360006AF583C56BF568C574F569C575F56AC5D9
:1053700076F56BC577F574C53EF575C53FF576C511
:1053800040F577C541F512000450800B0D6E0450B6
:1053900004240F6E03AECFEF29F0D1EF29F0D2EF46
:1053A00029F00F800F50D8B4D8EF29F0DAEF29F0A8
:1053B000EFEF29F00F28D8A4E0EF29F0E2EF29F071
:1053C000EAEF29F0000E016E000E026E000E036E71
:1053D000000E046E038E000E046EF7EF29F0000E2F
:1053E000016E000E026E000E036E000E046E085079
:1053F000800B0E6E0D500E18D8B401EF2AF003EF9B
:105400002AF004EF2AF00D8C085008240E6E07AE27
:105410000CEF2AF00EEF2AF00FEF2AF00E800E505C
:10542000D8B415EF2AF017EF2AF02CEF2AF00E2847
:10543000D8A41DEF2AF01FEF2AF027EF2AF0000E64
:10544000056E000E066E000E076E000E086E078ECB
:10545000000E086E34EF2AF0000E056E000E066E88
:10546000000E076E000E086E0F500E5CD8B03BEFBA
:105470002AF03DEF2AF064EF2AF00DAC42EF2AF05B
:1054800044EF2AF046EF2AF0800E0D1A0FC510F5F2
:105490000EC50FF510C50EF501C510F505C501F5D2
:1054A00010C505F502C510F506C502F510C506F5CF
:1054B00003C510F507C503F510C507F504C510F5BC
:1054C00008C504F510C508F5000E106E0F500EC586
:1054D00009F50A6A095E000E0A5A0ABE79EF2AF037
:1054E0000A5009E11A0E095CD8A079EF2AF07BEF87
:1054F0002AF0B2EF2AF00150021003100410D8A4D1
:1055000084EF2AF087EF2AF0010E88EF2AF0000ED0
:10551000106E000E016E000E026E000E036E000E85
:10552000046E0EC50FF5BBEF2AF010A09AEF2AF01B
:105530009CEF2AF0A2EF2AF0D89010300109106EEB
:10554000A4EF2AF0D890103201A0A9EF2AF0ABEF17
:105550002AF0ACEF2AF0108E043404320332023207
:1055600001320F2A0E500F5CD8A0B9EF2AF0BBEF22
:105570002AF095EF2AF00DBCC0EF2AF0C2EF2AF016
:1055800002EF2BF00F50D8A4C8EF2AF0CAEF2AF090
:10559000D4EF2AF0000E016E000E026E000E036EB4
:1055A000000E046E23EF2CF0055001260650022257
:1055B000075003220850042204A0E1EF2AF0E3EF91
:1055C0002AF08FEF2BF010A0E8EF2AF0EAEF2AF094
:1055D000F0EF2AF0D89010300109106EF2EF2AF0A7
:1055E000D890103201A0F7EF2AF0F9EF2AF0FAEF85
:1055F0002AF0108E043404320332023201320F2AB0
:105600008FEF2BF00550015C0650025807500358ED
:105610000450800A096E0850800A0958D8B013EF68
:105620002BF015EF2BF040EF2BF00150055C096ECD
:10563000025006580A6E035007580B6E0450085863
:105640000C6EFF0E0924016EFF0E0A20026EFF0E83
:105650000B20036EFF0E0C20046E800E0D1A106CD2
:105660001050D8A436EF2BF038EF2BF048EF2BF08A
:10567000010E0126000E02220322042248EF2BF025
:105680000550015E0650025A0750035A0850045A4A
:105690000150021003100410D8A451EF2BF053EF67
:1056A0002BF088EF2BF01050D8A459EF2BF05BEFC4
:1056B0002BF088EF2BF0000E016E000E026E000E34
:1056C000036E000E046E23EF2CF0D89001360236E4
:1056D0000336043610AE6FEF2BF071EF2BF072EF44
:1056E0002BF0018010A077EF2BF079EF2BF07DEFFE
:1056F0002BF0D88010367FEF2BF0D89010360F505B
:10570000D8B485EF2BF087EF2BF088EF2BF00F0646
:1057100003AE8DEF2BF08FEF2BF065EF2BF0000E2B
:105720000E6E10AE96EF2BF098EF2BF0B0EF2BF043
:1057300010C509F57F0E0916D8B4A1EF2BF0A3EF21
:105740002BF0A7EF2BF0010E0E6EB0EF2BF001A0A7
:10575000ACEF2BF0AEEF2BF0B0EF2BF0A3EF2BF074
:105760000E50D8B4B6EF2BF0B8EF2BF0E3EF2BF0E0
:10577000010E0126000E02220322042204A0C3EF20
:105780002BF0C5EF2BF0E3EF2BF001C509F502C5B7
:105790000AF503C50BF504C50CF50C340C320B32BD
:1057A0000A32093209C501F50AC502F50BC503F530
:1057B0000CC504F50F28D8B4E0EF2BF0E2EF2BF086
:1057C000E3EF2BF00F2A0F28D8B4E9EF2BF0EBEF23
:1057D0002BF0F3EF2BF00F50D8A4F1EF2BF0F3EFF9
:1057E0002BF005EF2CF0000E016E000E026E000E85
:1057F000036E000E046E0F50D8A401EF2CF003EFDF
:105800002CF005EF2CF0000E0D6E0FA00AEF2CF01F
:105810000CEF2CF00FEF2CF0038E10EF2CF0039E0A
:10582000D8900F30046E0DAE18EF2CF01AEF2CF05C
:105830001BEF2CF0048E01C501F502C502F503C56E
:1058400003F504C504F512001450800B1D6E1450AE
:105850001424236E13AE2FEF2CF031EF2CF032EF27
:105860002CF023802350D8B438EF2CF03AEF2CF0F2
:105870004DEF2CF02328D8A440EF2CF042EF2CF071
:105880004AEF2CF0000E116E000E126E000E136E19
:10589000000E146E138E55EF2CF0000E116E000EDC
:1058A000126E000E136E000E146E1850800B1D1A2F
:1058B00018501824226E17AE60EF2CF062EF2CF017
:1058C00063EF2CF022802250D8B469EF2CF06BEFFC
:1058D0002CF07EEF2CF02228D8A471EF2CF073EF7F
:1058E0002CF07BEF2CF0000E156E000E166E000EE5
:1058F000176E000E186E178E86EF2CF0000E156EC8
:10590000000E166E000E176E000E186E2250D8B4E0
:105910008CEF2CF08EEF2CF096EF2CF02350D8A4C7
:1059200094EF2CF096EF2CF0A0EF2CF0000E116EFF
:10593000000E126E000E136E000E146E4AEF2EF063
:10594000175011026100CCF328F56100D0F329F55E
:1059500028501E6E1F6A206A216A2950246E256A0B
:10596000266A276A165012026100CCF328F56100FE
:10597000D0F329F528501E26000E1F2220222122B6
:1059800029502426000E25222622272215501302F4
:105990006100CCF328F56100D0F329F528501E26CC
:1059A000000E1F222022212229502426000E25220B
:1059B0002622272220C521F51FC520F51EC51FF56B
:1059C0001E6A155012026100CCF328F56100D0F375
:1059D00029F528501E2629501F22000E2022000ED5
:1059E0002122165011026100CCF328F56100D0F39A
:1059F00029F528501E2629501F22000E2022000EB5
:105A0000212220C521F51FC520F51EC51FF51E6AE0
:105A1000155011026100CCF328F56100D0F329F58F
:105A200028501E2629501F22000E2022000E21225F
:105A3000175012026100CCF328F56100D0F329F56C
:105A40002850242629502522000E2622000E272227
:105A5000165013026100CCF328F56100D0F329F54C
:105A60002850242629502522000E2622000E272207
:105A7000175013026100CCF328F56100D0F329F52B
:105A80002850196E29501A6E1B6A1C6A1BC51CF51A
:105A90001AC51BF519C51AF5196A195024261A508A
:105AA00025221B5026221C5027221EC519F51FC572
:105AB0001AF520C51BF521C51CF5190E65EF2DF053
:105AC000D8901C321B321A321932E82E60EF2DF0BA
:105AD000195024261A5025221B5026221C502722FA
:105AE00020C521F51FC520F51EC51FF51E6A2250D1
:105AF00023C519F51A6A1926000E1A22820E1924D6
:105B0000286EFF0E1A20296E9BEF2DF0D8902436B8
:105B100025362636273621AE90EF2DF092EF2DF068
:105B200093EF2DF02480D8901E361F362036213674
:105B30002806D8A0290626AEA0EF2DF0A2EF2DF062
:105B400086EF2DF0000E226E21AEA9EF2DF0ABEF07
:105B50002DF0CFEF2DF0FF0E1E14196EFF0E1F1447
:105B60001A6EFF0E20141B6E7F0E21141C6E19502E
:105B70001A101B101C10D8B4C0EF2DF0C2EF2DF07E
:105B8000C6EF2DF0010E226ECFEF2DF024A0CBEF4B
:105B90002DF0CDEF2DF0CFEF2DF0C2EF2DF02250F4
:105BA000D8B4D5EF2DF0D7EF2DF0FBEF2DF0010E8F
:105BB0002426000E25222622272227A0E2EF2DF000
:105BC000E4EF2DF0FBEF2DF024C519F525C51AF5EE
:105BD00026C51BF527C51CF51C341C321B321A3296
:105BE000193219C524F51AC525F51BC526F51CC59E
:105BF00027F5284A292A29BE06EF2EF0295008E168
:105C00002828D8A006EF2EF008EF2EF012EF2EF085
:105C1000000E246E000E256E800E266E7F0E276EFF
:105C200040EF2EF029BE1FEF2EF0295006E1280488
:105C3000D8B01DEF2EF01FEF2EF02BEF2EF0000E40
:105C4000246E000E256E000E266E000E276E000ECE
:105C50001D6E40EF2EF028C523F5FF0E2416FF0E13
:105C600025167F0E2616000E271623A03AEF2EF0DB
:105C70003CEF2EF03DEF2EF0268ED8902330276E8D
:105C80001D50271224C511F525C512F526C513F59B
:105C900027C514F512003550800B426E355035245F
:105CA000496E34AE56EF2EF058EF2EF059EF2EF02D
:105CB00049804950D8B45FEF2EF061EF2EF076EFB7
:105CC0002EF04928D8A467EF2EF069EF2EF071EF7F
:105CD0002EF0000E326E000E336E000E346E000E8B
:105CE000356E348E000E356E7EEF2EF0000E326E65
:105CF000000E336E000E346E000E356E3950800B80
:105D0000421A395039244A6E38AE89EF2EF08BEFA3
:105D10002EF08CEF2EF04A804A50D8B492EF2EF03D
:105D200094EF2EF0A9EF2EF04A28D8A49AEF2EF087
:105D30009CEF2EF0A4EF2EF0000E366E000E376EA4
:105D4000000E386E000E396E388E000E396EB1EFCF
:105D50002EF0000E366E000E376E000E386E000EFE
:105D6000396E3650371038103910D8A4BAEF2EF0EB
:105D7000BCEF2EF0D4EF2EF0000E326E000E336E1C
:105D8000000E346E000E356E800E34127F0E35120A
:105D90004250351232C532F533C533F534C534F5CA
:105DA00035C535F517EF30F04950D8A4DAEF2EF0AD
:105DB000DCEF2EF0E6EF2EF0000E326E000E336EAA
:105DC000000E346E000E356E17EF30F04A5049C5A4
:105DD0003AF53B6A3A5E000E3B5A7F0E3A24436E18
:105DE000000E3B20446E32C53EF533C53FF534C549
:105DF00040F535C541F5000E326E000E336E000ED3
:105E0000346E000E356E000E456E000E466E000EAE
:105E1000476E000E486E000E4A6E47EF2FF04A5054
:105E2000D8B415EF2FF017EF2FF02EEF2FF0D890FA
:105E30003E363F3640364136D890323633363436E9
:105E4000353648AE26EF2FF028EF2FF029EF2FF050
:105E50003280D890453646364736483636503E5C16
:105E600037503F583850405839504158D8A03BEF30
:105E70002FF03DEF2FF046EF2FF0488C36503E5E6E
:105E800037503F5A3850405A3950415A4A2A190E11
:105E90004A644DEF2FF04FEF2FF00FEF2FF03E50F1
:105EA0003F1040104110D8B458EF2FF05AEF2FF0A8
:105EB00072EF2FF0458072EF2FF0D89032363336E4
:105EC0003436353648AE67EF2FF069EF2FF06AEFC2
:105ED0002FF03280D890453646364736483643064E
:105EE000D8A0440634AE77EF2FF079EF2FF05DEFB6
:105EF0002FF0000E4A6E48AE80EF2FF082EF2FF0A9
:105F0000A6EF2FF0FF0E45143A6EFF0E46143B6EBF
:105F1000FF0E47143C6E7F0E48143D6E3A503B1006
:105F20003C103D10D8B497EF2FF099EF2FF09DEF74
:105F30002FF0010E4A6EA6EF2FF032A0A2EF2FF045
:105F4000A4EF2FF0A6EF2FF099EF2FF04A50D8B41E
:105F5000ACEF2FF0AEEF2FF0D2EF2FF0010E322684
:105F6000000E33223422352235A0B9EF2FF0BBEFDB
:105F70002FF0D2EF2FF032C53AF533C53BF534C5DB
:105F80003CF535C53DF53D343D323C323B323A328D
:105F90003AC532F53BC533F53CC534F53DC535F55D
:105FA000434A442A44BEDDEF2FF0445008E1432821
:105FB000D8A0DDEF2FF0DFEF2FF0EAEF2FF0000E8B
:105FC000446E4368000E326E000E336E000E346E67
:105FD000000E356E44BEF7EF2FF0445006E1430447
:105FE000D8B0F5EF2FF0F7EF2FF005EF30F0000EFF
:105FF000446E000E436E000E326E000E336E000EC5
:10600000346E000E356E000E426E43C549F549A050
:106010000CEF30F00EEF30F011EF30F0348E12EF65
:1060200030F0349ED8904930356EC8EF2EF0120013
:106030002AC538F52BC539F52CC53AF52DC53BF5E4
:106040002FBE2CEF30F02F5009E1800E2E5CD8A02F
:106050002CEF30F02EEF30F08CEF30F038C511F52A
:1060600039C512F53AC513F53BC514F5000E156E8A
:10607000000E166E000E176E7F0E186E24EC2CF0BC
:1060800011C538F512C539F513C53AF514C53BF5F8
:10609000810E2E26FF0E2F222FBE58EF30F02F50EC
:1060A00009E1800E2E5CD8A058EF30F05AEF30F0A6
:1060B000F6EF30F038C511F539C512F53AC513F5CC
:1060C0003BC514F5000E156E000E166E000E176E11
:1060D0007F0E186E24EC2CF011C538F512C539F579
:1060E00013C53AF514C53BF5810E2E26FF0E2F225F
:1060F0002FBE84EF30F02F5009E1800E2E5CD8A027
:1061000084EF30F086EF30F0F6EF30F0000E2F6EB7
:106110007F0E2E6EF6EF30F02FAE98EF30F0820E3D
:106120002E5CFF0E2F58D8B098EF30F09AEF30F079
:10613000F6EF30F038C511F539C512F53AC513F54B
:106140003BC514F5000E156E000E166E800E176E10
:106150000C0E186E24EC2CF011C538F512C539F56B
:1061600013C53AF514C53BF5660E2E26000E2F22F8
:106170002FAEC4EF30F0820E2E5CFF0E2F58D8B039
:10618000C4EF30F0C6EF30F0F6EF30F038C511F55F
:1061900039C512F53AC513F53BC514F5000E156E59
:1061A000000E166E800E176E0C0E186E24EC2CF07E
:1061B00011C538F512C539F513C53AF514C53BF5C7
:1061C000660E2E26000E2F222FAEF0EF30F0820E3C
:1061D0002E5CFF0E2F58D8B0F0EF30F0F2EF30F019
:1061E000F6EF30F0FF0E2F6E820E2E6E7F0E2E24F5
:1061F000306E000E2F20316E326A336A170ED8903F
:106200003036313632363336E82EFFEF30F030C5D7
:1062100034F531C535F532C536F533C537F534C5F6
:1062200011F535C512F536C513F537C514F538C562
:1062300015F539C516F53AC517F53BC518F524EC23
:106240002CF011C52AF512C52BF513C52CF514C574
:106250002DF52AC52AF52BC52BF52CC52CF52DC5FA
:106260002DF51200096E0950D8B439EF31F03BEF2B
:1062700031F05DEF31F004BE42EF31F040EF31F02C
:106280005DEF31F001C505F502C506F503C507F55B
:1062900004C508F5051E061E071E081E052A000E69
:1062A00006220722082205C50BF506C50CF507C511
:1062B0000DF508C50EF565EF31F001C50BF502C50A
:1062C0000CF503C50DF504C50EF5015002100310C1
:1062D0000410D8A46EEF31F070EF31F07AEF31F0A6
:1062E000000E016E000E026E000E036E000E046EB4
:1062F0000BEF32F0960E0A6E84EF31F00A2AD89036
:106300000E320D320C320B32000E0B14056E000EE5
:106310000C14066E000E0D14076EFE0E0E14086EA1
:106320000550061007100810D8A499EF31F09BEF24
:1063300031F07EEF31F0A9EF31F00A2A010E0B2681
:10634000000E0C220D220E22D8900E320D320C328D
:106350000B32000E0B14056E000E0C14066E000EB0
:106360000D14076EFF0E0E14086E05500610071070
:106370000810D8A4BEEF31F0C0EF31F09DEF31F03E
:10638000C8EF31F00A06D8900B360C360D360E36B3
:106390000DBECDEF31F0CFEF31F0D7EF31F0020E7F
:1063A0000A60D5EF31F0D7EF31F0C2EF31F00AB02B
:1063B000DCEF31F0DEEF31F0DFEF31F00D9ED89001
:1063C0000A320AC505F5066A076A086A05C508F5AE
:1063D000076A066A056A05500B1206500C12075030
:1063E0000D1208500E120950D8B4F9EF31F0FBEF3E
:1063F00031F003EF32F004BE02EF32F000EF32F082
:1064000003EF32F00E8E0BC501F50CC502F50DC57C
:1064100003F50EC504F51200036E4FEF32F03F0E88
:10642000046E98EF32F0060E046E98EF32F05B0EB9
:10643000046E98EF32F04F0E046E98EF32F0660E55
:10644000046E98EF32F06D0E046E98EF32F07D0E10
:10645000046E98EF32F0070E046E98EF32F07F0E64
:10646000046E98EF32F0670E046E98EF32F0770EFC
:10647000046E98EF32F07C0E046E98EF32F0580EF6
:10648000046E98EF32F05E0E046E98EF32F0790EE3
:10649000046E98EF32F0710E046E98EF32F00350F4
:1064A000016E026A0250000AD8B459EF32F04BEF85
:1064B00032F00150000AD8B40FEF32F0010AD8B41C
:1064C00013EF32F0030AD8B417EF32F0010AD8B450
:1064D0001BEF32F0070AD8B41FEF32F0010AD8B42C
:1064E00023EF32F0030AD8B427EF32F0010AD8B410
:1064F0002BEF32F00F0AD8B42FEF32F0010AD8B4E4
:1065000033EF32F0030AD8B437EF32F0010AD8B4CF
:106510003BEF32F0070AD8B43FEF32F0010AD8B4AB
:1065200043EF32F0030AD8B447EF32F04BEF32F0CA
:106530000450120005018E358F35596E5950D8A47C
:10654000A4EF32F0A6EF32F0B0EF32F0000E8C6F15
:10655000000E8D6F000E8E6F000E8F6F1DEF33F0EB
:106560008CC554F58DC555F58EC556F58FC557F5B7
:10657000200EC0EF32F0D890573256325532543296
:10658000E82EBBEF32F05450586E8E8FFF0E8C17F2
:10659000FF0E8D17FF0E8E17000E8F17960E595E89
:1065A00059BED7EF32F0D5EF32F0EDEF32F059505F
:1065B000800A970FD8B0DFEF32F0E1EF32F0E3EF6F
:1065C00032F0A6EF32F0D8908F338E338D338C3388
:1065D000593EE3EF32F005EF33F01F0E5964F3EF4D
:1065E00032F0F5EF32F0FDEF32F0A6EF32F0D89056
:1065F0008C378D378E378F3759065950D8A403EF13
:1066000033F005EF33F0F7EF32F05850D8B40BEF1A
:1066100033F00DEF33F015EF33F08F1F8E1F8D1F0A
:106620008C6D000E8D238E238F238CC58CF58DC52C
:106630008DF58EC58EF58FC58FF51200000E3214C4
:106640003A6E000E33143B6E800E34143C6E7F0E97
:1066500035143D6E3A503B103C103D10D8A433EF3A
:1066600033F035EF33F03DEF33F0000E326E000EB5
:10667000336E000E346E000E356E000E36143A6E18
:10668000000E37143B6E800E38143C6E7F0E3914AA
:106690003D6E3A503B103C103D10D8A452EF33F001
:1066A00054EF33F05CEF33F0000E366E000E376EB1
:1066B000000E386E000E396E35AE61EF33F063EFC9
:1066C00033F06CEF33F0326C331ED8B0332A341E03
:1066D000D8B0342A800E355639AE71EF33F073EFEF
:1066E00033F07CEF33F0366C371ED8B0372A381EC3
:1066F000D8B0382A800E3956000E321A000E331ADE
:10670000000E341A800E351A000E361A000E371A93
:10671000000E381A800E391A3650325C3750335812
:106720003850345839503558D8B099EF33F09BEF82
:1067300033F09EEF33F0D8909FEF33F0D880120003
:10674000000E05019D6F9D51016E026A036A046A85
:10675000000E32EC31F001C594F502C595F503C584
:1067600096F504C597F594C588F595C589F596C540
:106770008AF597C58BF5000E0501846F000E856FB5
:10678000000E866F400E876FC0EC12F084C58CF54A
:1067900085C58DF586C58EF587C58FF59AEC32F0E7
:1067A0008CC598F58DC599F50501981D5A6E991DF2
:1067B0005B6E0F0E5A149A6F9B6B610068F6C0F403
:1067C0009D51080DF35090C55AF591C55BF592C5E2
:1067D0005CF593C55DF5E82AF3EF33F0D8905D32B0
:1067E0005C325B325A32E82EEEEF33F05A509C6F37
:1067F0009C510CEC32F0BF6E020E5B6E450E5A6E71
:10680000AA0EE82EFED75A2EFCD75B2EFAD705012A
:106810009D2B030E9D650FEF34F011EF34F0A3EFC5
:1068200033F01200000EBE6E000EBF6E000EC06E82
:10683000000EC16E000EC26E000EC36EC668C76841
:10684000C868C9680F0ECA6EF00ECB6E04010069ED
:10685000086910691869070E206F000E286F000E76
:10686000016F000E096F000E116F000E196F000E00
:10687000216F000E296F000E0201896F000E886FD4
:10688000000E876F000E866F000E0401026F000E6F
:106890000A6F000E126F000E1A6F000E226F000EAC
:1068A0002A6F03690B6913691B69070E236F2B6934
:1068B00004690C6914691C690F0E246F2C69000EA1
:1068C000056F000E066F000E076F000E0D6F000EB5
:1068D0000E6F000E0F6F000E156F000E166F000E7C
:1068E000176F000E256F000E266F000E276F120027
:1068F000000E2E1A000E2F1A000E301A800E311ABA
:106900002AC501F52BC502F52CC503F52DC504F5E7
:106910002EC505F52FC506F530C507F531C508F5B7
:10692000C4EC29F001C52AF502C52BF503C52CF5E9
:1069300004C52DF51200D69AAF90D680000E016ED8
:10694000000E026E000E036E40EC35F0B490D6825D
:10695000000E016E000E026E000E036E39EC35F073
:10696000B890D684000E016E000E026E000E036E0B
:1069700032EC35F012000150021003100410D8B4AC
:10698000C4EF34F0C6EF34F0CEEF34F0000E011A4D
:10699000000E021A000E031A800E041A01C501F53A
:1069A00002C502F503C503F504C504F51200A7C529
:1069B00005F5A8C506F5A9C507F5AAC508F501C5D9
:1069C00005F502C506F503C507F504C508F5089EDB
:1069D00005C501F506C502F507C503F508C504F5AB
:1069E00012002BEC35F00D0E0501906F0C0E916F1F
:1069F0000B0E926F0A0E936FA0EC33F0F3EF34F0AE
:106A0000FEEFFFF0FF0E056EFF0E066EFF0E076E27
:106A10007F0E086E05C501F506C502F507C503F52D
:106A200008C504F51200620E0001AD6F000EAF6FD5
:106A3000000EB36F020EB16F000EB06F000EAC6FA0
:106A400012000501AA6BA96BA86BA76B5F6A5E6A4F
:106A50000001F1EF34F013EC35F012EC34F09BEC64
:106A600034F0120001C59EF502C59FF503C5A0F5DF
:106A7000120001C5A1F502C5A2F503C5A3F51200D8
:0E6A800001C5A4F502C5A5F503C5A6F51200D3
:020000040001F9
:04FFFC0021EF35F0CC
:020000040020DA
:10000000FF0FFF0FFF0FFF0FFF0FFF0FFF0FFF0F80
:10001000FF0FFF0FFF0FFF0FFF0FFF0FFF0FFF0F70
:10002000FF0FFF0FFF0FFF0FFF0FFF0FFF0FFF0F60
:10003000FF0FFF0FFF0FFF0FFF0FFF0FFF0FFF0F50
:020000040030CA
:0A000000FFFFF7FF9FFFFFFFFFFF68
:00000001FF
