:040000000DEF00F010
:04000800C7EF22F02C
:06001800FF008EEF25F051
:0F260000002020256600696E66006E616E000086
:10261000000E0501816F36C584F537C585F538C5CF
:1026200086F539C587F587BF1AEF13F018EF13F059
:102630002EEF13F0010E816F84C501F585C502F5FB
:1026400086C503F587C504F572EC25F001C584F550
:1026500002C585F503C586F504C587F5000E05019D
:10266000836F000E826FB7C571F5B8C572F58151E1
:10267000D8B43DEF13F03FEF13F053EF13F0815157
:10268000D8A445EF13F047EF13F04DEF13F0000E11
:10269000676F2B0E666F51EF13F0000E676F2D0EF4
:1026A000666F66C581F584C501F585C502F586C5E9
:1026B00003F587C504F548EC22F001040210D8A404
:1026C00064EF13F066EF13F099EF13F005018151F9
:1026D000D8B46DEF13F06FEF13F078EF13F081C5FE
:1026E00000F67107D8A07207000E836F010E826F8B
:1026F000000E8225016E060E8321026E060E036E09
:10270000260E046E2EEC25F00501FD0E7127FF0E3E
:10271000722334C511F535C512F5000E136E060E81
:10272000146E71C515F572C516F5F9EC23F005EFB9
:1027300018F084C501F585C502F586C503F587C582
:1027400004F548EC22F001500210D8A4AAEF13F0CF
:10275000ACEF13F0CCEF13F005018151D8B4B3EF17
:1027600013F0B5EF13F0BEEF13F081C500F671075B
:10277000D8A07207000E836F010E826F000E8225B3
:10278000016E060E8321026E0A0E036E260E046E83
:102790002EEC25F084EF13F0000E0501886F000E7B
:1027A000896F800E8A6F3F0E8B6F000E706F000E68
:1027B0006F6F84C501F585C502F586C503F587C52C
:1027C00004F5000E056E000E066E000E076E000E7C
:1027D000086EA4EC23F0D8B0F0EF13F0F2EF13F092
:1027E000D1EF14F0FFEF13F073C588F574C589F5C8
:1027F00075C58AF576C58BF505016F4B702B88C5BD
:102800000FF589C510F58AC511F58BC512F5000EB7
:10281000136E000E146E200E156E410E166E66ECD1
:102820001AF00FC573F510C574F511C575F512C50D
:1028300076F505017351845D016E74518559026E00
:1028400075518659036E76518759046E36EC24F023
:1028500004BE36EF14F004500310021009E1020E1A
:10286000015CD8A036EF14F038EF14F0F4EF13F059
:1028700073C528F574C529F575C52AF576C52BF5F8
:1028800084C52CF585C52DF586C52EF587C52FF594
:10289000C6EC21F0D8A04FEF14F051EF14F0F4EF94
:1028A00013F005018851845D016E89518559026ECE
:1028B0008A518659036E8B518759046E36EC24F089
:1028C00004BE70EF14F004500310021007E1020E72
:1028D000015CD8B06EEF14F070EF14F0B8EF14F0A4
:1028E00088C584F589C585F58AC586F58BC587F5C4
:1028F000D1EF14F088C501F589C502F58AC503F545
:102900008BC504F5000E056E000E066E200E076ED8
:10291000410E086E7BEC1CF001C588F502C589F5F7
:1029200003C58AF504C58BF505016F07D8A07007AC
:102930008851845D016E89518559026E8A5186598C
:10294000036E8B518759046E36EC24F004BEB6EF4B
:1029500014F004500310021007E1020E015CD8B01D
:10296000B4EF14F0B6EF14F0B8EF14F070EF14F009
:1029700084C528F585C529F586C52AF587C52BF5B3
:1029800088C52CF589C52DF58AC52EF58BC52FF583
:10299000C6EC21F0D8A0CFEF14F0D1EF14F07AEF0D
:1029A00014F03AC569F569C56AF55FBEDAEF14F04F
:1029B000DCEF14F0E2EF14F05EC562F55FC563F57D
:1029C000E7EF14F0000E0501636F060E626F62C53B
:1029D0006DF563C56EF505016D4B6E2B660E6A19BC
:1029E000D8A4F5EF14F0F7EF14F017EF15F070BF5F
:1029F000FEEF14F0FCEF14F00AEF15F0000E886FF4
:102A0000000E896F800E8A6F3F0E8B6F000E706F05
:102A1000000E6F6F670E6919D8B411EF15F013EF40
:102A200015F017EF15F06F516D2770516E23000EE2
:102A3000786F000E776F84C579F585C57AF586C500
:102A40007BF587C57CF588C573F589C574F58AC59E
:102A500075F58BC576F5A8EF15F079C501F57AC542
:102A600002F57BC503F57CC504F588C505F589C568
:102A700006F58AC507F58BC508F57BEC1CF001C58A
:102A80001AF502C51BF503C51CF504C51DF560EC60
:102A90001FF01AC57DF51BC57EF51CC57FF51DC54C
:102AA00080F57DC501F57EC502F57FC503F580C5BE
:102AB00004F543EC21F001C56BF502C56CF579C551
:102AC00028F57AC529F57BC52AF57CC52BF57DC58A
:102AD00013F57EC514F57FC515F580C516F588C5B7
:102AE0000FF589C510F58AC511F58BC512F566EC91
:102AF0001AF00FC52CF510C52DF511C52EF512C510
:102B00002FF50BEC25F028C579F529C57AF52AC5EE
:102B10007BF52BC57CF588C501F589C502F58AC50D
:102B200003F58BC504F5000E056E000E066E200E33
:102B3000076E410E086E7BEC1CF001C588F502C5DE
:102B400089F503C58AF504C58BF50501774B782B0C
:102B50006D51775D7851800A3B6E6E51800A3B580B
:102B6000D8A0B5EF15F0B7EF15F02DEF15F088C52B
:102B70000FF589C510F58AC511F58BC512F5000E44
:102B8000136E000E146EA00E156E400E166E66ECDF
:102B90001AF00FC57DF510C57EF511C57FF512C57C
:102BA00080F579C528F57AC529F57BC52AF57CC558
:102BB0002BF57DC52CF57EC52DF57FC52EF580C581
:102BC0002FF5C6EC21F0D8B0E8EF15F0EAEF15F0DC
:102BD000F5EF15F0000E05017D6F000E7E6F000E03
:102BE0007F6F000E806F1EEF16F079C501F57AC574
:102BF00002F57BC503F57CC504F57DC505F57EC5ED
:102C000006F57FC507F580C508F5A4EC23F0D8A02C
:102C10000CEF16F00EEF16F01EEF16F005016BB17B
:102C200014EF16F016EF16F01EEF16F0000E7D6F83
:102C3000000E7E6F000E7F6F000E806F84C501F561
:102C400085C502F586C503F587C504F57DC505F57F
:102C50007EC506F57FC507F580C508F506EC18F0BA
:102C600001C579F502C57AF503C57BF504C57CF588
:102C700079C528F57AC529F57BC52AF57CC52BF5DC
:102C8000000E136E000E146E200E156E410E166EA1
:102C900073C50FF574C510F575C511F576C512F538
:102CA00066EC1AF00FC52CF510C52DF511C52EF5E3
:102CB00012C52FF5C6EC21F0D8A061EF16F063EF36
:102CC00016F08CEF16F005016F4B702B73C50FF5E6
:102CD00074C510F575C511F576C512F5000E136EA5
:102CE000000E146E200E156E410E166E66EC1AF074
:102CF0000FC573F510C574F511C575F512C576F5D8
:102D0000660E05016A19D8A488EF16F08AEF16F04E
:102D10008CEF16F06D4B6E2B73C588F574C589F575
:102D200075C58AF576C58BF56FC560F570C561F51B
:102D3000000E0501686F000E656F000E646F000ED7
:102D4000786F000E776F8AEF17F079C501F57AC5B5
:102D500002F57BC503F57CC504F588C505F589C575
:102D600006F58AC507F58BC508F57BEC1CF001C597
:102D70001AF502C51BF503C51CF504C51DF560EC6D
:102D80001FF01AC57DF51BC57EF51CC57FF51DC559
:102D900080F57DC501F57EC502F57FC503F580C5CB
:102DA00004F543EC21F002BEE1EF16F0025007E11A
:102DB0000A0E015CD8B0DFEF16F0E1EF16F0F1EF8C
:102DC00016F07DC501F57EC502F57FC503F580C50A
:102DD00004F543EC21F001C56BF502C56CF5F6EF87
:102DE00016F0000E05016C6F090E6B6F050168513E
:102DF000D8A4FDEF16F0FFEF16F027EF17F061BF34
:102E000006EF17F004EF17F027EF17F0000E8225FA
:102E1000D96E060E8321DA6E2E0EDF6E824B832B67
:102E20007107D8A07207010E686F27EF17F0000E28
:102E30008225D96E060E8321DA6E300EDF6E824B4C
:102E4000832B7107D8A072076407D8A06507645167
:102E50006511D8A42EEF17F030EF17F017EF17F029
:102E6000000E8225D96E060E8321DA6E6B51300F6B
:102E7000DF6E824B832B7107D8A0720779C528F5C6
:102E80007AC529F57BC52AF57CC52BF57DC513F5DB
:102E90007EC514F57FC515F580C516F588C50FF5F7
:102EA00089C510F58AC511F58BC512F566EC1AF0C7
:102EB0000FC52CF510C52DF511C52EF512C52FF532
:102EC0000BEC25F028C579F529C57AF52AC57BF5DF
:102ED0002BC57CF588C501F589C502F58AC503F5C2
:102EE0008BC504F5000E056E000E066E200E076EF3
:102EF000410E086E7BEC1CF001C588F502C589F512
:102F000003C58AF504C58BF505016007D8A06107E4
:102F1000774B782B6D51775D7851800A3B6E6E51FF
:102F2000800A3B58D8B097EF17F099EF17F0A7EF4A
:102F300017F083BFA5EF17F0835109E14B0E825DB7
:102F4000D8A0A5EF17F0A7EF17F0A5EF16F0000E29
:102F5000786F4F0E776F000E7725D96E060E7821A9
:102F6000DA6E000EDF6E000E3B6E060E3C6E825176
:102F70003B5E83513C5A77513B24016E78513C2093
:102F8000026E000E036E060E046E82C505F583C543
:102F900006F5BDEC24F005018251775D826F835107
:102FA0007859836F8151D8A4D8EF17F0DBEF17F071
:102FB000010EDCEF17F0000E776F786B8151D8B4FB
:102FC000E4EF17F0E6EF17F0F1EF17F08207D8A063
:102FD0008307000E8225D96E060E8321DA6E81C525
:102FE000DFF47751715F7851725B34C511F535C5E7
:102FF00012F5000E8225136E060E8321146E71C524
:1030000015F572C516F5F9EC23F012000450800B8B
:103010000D6E045004240F6E03AE11EF18F013EF81
:1030200018F014EF18F00F800F50D8B41AEF18F002
:103030001CEF18F031EF18F00F28D8A422EF18F089
:1030400024EF18F02CEF18F0000E016E000E026E47
:10305000000E036E000E046E038E000E046E39EF38
:1030600018F0000E016E000E026E000E036E000ED0
:10307000046E0850800B0E6E0D500E18D8B443EF3E
:1030800018F045EF18F046EF18F00D8C08500824A2
:103090000E6E07AE4EEF18F050EF18F051EF18F02B
:1030A0000E800E50D8B457EF18F059EF18F06EEFAD
:1030B00018F00E28D8A45FEF18F061EF18F069EF50
:1030C00018F0000E056E000E066E000E076E000E64
:1030D000086E078E000E086E76EF18F0000E056E73
:1030E000000E066E000E076E000E086E0F500E5C8E
:1030F000D8B07DEF18F07FEF18F0A6EF18F00DAC08
:1031000084EF18F086EF18F088EF18F0800E0D1A93
:103110000FC510F50EC50FF510C50EF501C510F55C
:1031200005C501F510C505F502C510F506C502F582
:1031300010C506F503C510F507C503F510C507F55D
:1031400004C510F508C504F510C508F5000E106E8D
:103150000F500EC509F50A6A095E000E0A5A0ABE2A
:10316000BBEF18F00A5009E11A0E095CD8A0BBEFBA
:1031700018F0BDEF18F0F4EF18F001500210031032
:103180000410D8A4C6EF18F0C9EF18F0010ECAEF6A
:1031900018F0000E106E000E016E000E026E000E92
:1031A000036E000E046E0EC50FF5FDEF18F010A0B3
:1031B000DCEF18F0DEEF18F0E4EF18F0D8901030E4
:1031C0000109106EE6EF18F0D890103201A0EBEF75
:1031D00018F0EDEF18F0EEEF18F0108E0434043212
:1031E0000332023201320F2A0E500F5CD8A0FBEFDF
:1031F00018F0FDEF18F0D7EF18F00DBC02EF19F042
:1032000004EF19F044EF19F00F50D8A40AEF19F0A9
:103210000CEF19F016EF19F0000E016E000E026EA1
:10322000000E036E000E046E65EF1AF005500126C5
:1032300006500222075003220850042204A023EF64
:1032400019F025EF19F0D1EF19F010A02AEF19F0BD
:103250002CEF19F032EF19F0D89010300109106EF0
:1032600034EF19F0D890103201A039EF19F03BEF8C
:1032700019F03CEF19F0108E04340432033202329C
:1032800001320F2AD1EF19F00550015C06500258A7
:10329000075003580450800A096E0850800A0958E4
:1032A000D8B055EF19F057EF19F082EF19F001502F
:1032B000055C096E025006580A6E035007580B6EE3
:1032C000045008580C6EFF0E0924016EFF0E0A20F0
:1032D000026EFF0E0B20036EFF0E0C20046E800E9C
:1032E0000D1A106C1050D8A478EF19F07AEF19F07D
:1032F0008AEF19F0010E0126000E02220322042299
:103300008AEF19F00550015E0650025A0750035A21
:103310000850045A0150021003100410D8A493EF6F
:1033200019F095EF19F0CAEF19F01050D8A49BEFDF
:1033300019F09DEF19F0CAEF19F0000E016E000EA2
:10334000026E000E036E000E046E65EF1AF0D89048
:10335000013602360336043610AEB1EF19F0B3EF82
:1033600019F0B4EF19F0018010A0B9EF19F0BBEF1C
:1033700019F0BFEF19F0D8801036C1EF19F0D890CE
:1033800010360F50D8B4C7EF19F0C9EF19F0CAEFD3
:1033900019F00F0603AECFEF19F0D1EF19F0A7EF38
:1033A00019F0000E0E6E10AED8EF19F0DAEF19F02A
:1033B000F2EF19F010C509F57F0E0916D8B4E3EF46
:1033C00019F0E5EF19F0E9EF19F0010E0E6EF2EFCA
:1033D00019F001A0EEEF19F0F0EF19F0F2EF19F08B
:1033E000E5EF19F00E50D8B4F8EF19F0FAEF19F034
:1033F00025EF1AF0010E0126000E022203220422FC
:1034000004A005EF1AF007EF1AF025EF1AF001C536
:1034100009F502C50AF503C50BF504C50CF50C3416
:103420000C320B320A32093209C501F50AC502F520
:103430000BC503F50CC504F50F28D8B422EF1AF01C
:1034400024EF1AF025EF1AF00F2A0F28D8B42BEF2B
:103450001AF02DEF1AF035EF1AF00F50D8A433EF11
:103460001AF035EF1AF047EF1AF0000E016E000E59
:10347000026E000E036E000E046E0F50D8A443EFD0
:103480001AF045EF1AF047EF1AF0000E0D6E0FA07C
:103490004CEF1AF04EEF1AF051EF1AF0038E52EF84
:1034A0001AF0039ED8900F30046E0DAE5AEF1AF04A
:1034B0005CEF1AF05DEF1AF0048E01C501F502C54C
:1034C00002F503C503F504C504F512001250800B84
:1034D0001B6E12501224216E11AE71EF1AF073EFB1
:1034E0001AF074EF1AF021802150D8B47AEF1AF054
:1034F0007CEF1AF08FEF1AF02128D8A482EF1AF08F
:1035000084EF1AF08CEF1AF0000E0F6E000E106EA2
:10351000000E116E000E126E118E97EF1AF0000E53
:103520000F6E000E106E000E116E000E126E165011
:10353000800B1B1A16501624206E15AEA2EF1AF03F
:10354000A4EF1AF0A5EF1AF020802050D8B4ABEF0A
:103550001AF0ADEF1AF0C0EF1AF02028D8A4B3EF9C
:103560001AF0B5EF1AF0BDEF1AF0000E136E000E50
:10357000146E000E156E000E166E158EC8EF1AF042
:10358000000E136E000E146E000E156E000E166EF9
:103590002050D8B4CEEF1AF0D0EF1AF0D8EF1AF0CE
:1035A0002150D8A4D6EF1AF0D8EF1AF0E2EF1AF0B3
:1035B000000E0F6E000E106E000E116E000E126ED9
:1035C0007AEF1CF015500F02F3C426F5F4C427F56A
:1035D00026501C6E1D6A1E6A1F6A2750226E236ABF
:1035E000246A256A14501002F3C426F5F4C427F5A2
:1035F00026501C26000E1D221E221F222750222686
:10360000000E23222422252213501102F3C426F592
:10361000F4C427F526501C26000E1D221E221F2250
:1036200027502226000E2322242225221EC51FF504
:103630001DC51EF51CC51DF51C6A13501002F3C4F0
:1036400026F5F4C427F526501C2627501D22000E0F
:103650001E22000E1F2214500F02F3C426F5F4C4DC
:1036600027F526501C2627501D22000E1E22000E74
:103670001F221EC51FF51DC51EF51CC51DF51C6AA4
:1036800013500F02F3C426F5F4C427F526501C2668
:1036900027501D22000E1E22000E1F221550100260
:1036A000F3C426F5F4C427F52650222627502322FA
:1036B000000E2422000E252214501102F3C426F518
:1036C000F4C427F52650222627502322000E242258
:1036D000000E252215501102F3C426F5F4C427F577
:1036E0002650176E2750186E196A1A6A19C51AF5EE
:1036F00018C519F517C518F5176A1750222618505E
:103700002322195024221A5025221CC517F51DC545
:1037100018F51EC519F51FC51AF5190E95EF1BF002
:10372000D8901A32193218321732E82E90EF1BF067
:103730001750222618502322195024221A502522CD
:103740001EC51FF51DC51EF51CC51DF51C6A2050A4
:1037500021C517F5186A1726000E1822820E1724A5
:10376000266EFF0E1820276ECBEF1BF0D890223666
:103770002336243625361FAEC0EF1BF0C2EF1BF0F8
:10378000C3EF1BF02280D8901C361D361E361F3624
:103790002606D8A0270624AED0EF1BF0D2EF1BF0F0
:1037A000B6EF1BF0000E206E1FAED9EF1BF0DBEF63
:1037B0001BF0FFEF1BF0FF0E1C14176EFF0E1D1405
:1037C000186EFF0E1E14196E7F0E1F141A6E1750FE
:1037D000181019101A10D8B4F0EF1BF0F2EF1BF00C
:1037E000F6EF1BF0010E206EFFEF1BF022A0FBEFA7
:1037F0001BF0FDEF1BF0FFEF1BF0F2EF1BF0205072
:10380000D8B405EF1CF007EF1CF02BEF1CF0010EF5
:103810002226000E23222422252225A012EF1CF0AE
:1038200014EF1CF02BEF1CF022C517F523C518F57B
:1038300024C519F525C51AF51A341A321932183269
:10384000173217C522F518C523F519C524F51AC571
:1038500025F5264A272A27BE36EF1CF0275008E117
:103860002628D8A036EF1CF038EF1CF042EF1CF0F1
:10387000000E226E000E236E800E246E7F0E256ECB
:1038800070EF1CF027BE4FEF1CF0275006E1260416
:10389000D8B04DEF1CF04FEF1CF05BEF1CF0000EAA
:1038A000226E000E236E000E246E000E256E000E9A
:1038B0001B6E70EF1CF026C521F5FF0E2216FF0EC1
:1038C00023167F0E2416000E251621A06AEF1CF089
:1038D0006CEF1CF06DEF1CF0248ED8902130256E1B
:1038E0001B50251222C50FF523C510F524C511F56F
:1038F00025C512F512000450800B116E04500424EB
:10390000186E03AE86EF1CF088EF1CF089EF1CF0F8
:1039100018801850D8B48FEF1CF091EF1CF0A6EF70
:103920001CF01828D8A497EF1CF099EF1CF0A1EF19
:103930001CF0000E016E000E026E000E036E000EF3
:10394000046E038E000E046EAEEF1CF0000E016ECE
:10395000000E026E000E036E000E046E0850800B07
:10396000111A08500824196E07AEB9EF1CF0BBEF0E
:103970001CF0BCEF1CF019801950D8B4C2EF1CF039
:10398000C4EF1CF0D9EF1CF01928D8A4CAEF1CF022
:10399000CCEF1CF0D4EF1CF0000E056E000E066E8E
:1039A000000E076E000E086E078E000E086EE1EF27
:1039B0001CF0000E056E000E066E000E076E000E67
:1039C000086E0550061007100810D8A4EAEF1CF086
:1039D000ECEF1CF004EF1DF0000E016E000E026E05
:1039E000000E036E000E046E800E03127F0E041292
:1039F0001150041201C501F502C502F503C503F516
:103A000004C504F547EF1EF01850D8A40AEF1DF0C6
:103A10000CEF1DF016EF1DF0000E016E000E026E91
:103A2000000E036E000E046E47EF1EF0195018C50D
:103A300009F50A6A095E000E0A5A7F0E0924126E01
:103A4000000E0A20136E01C50DF502C50EF503C563
:103A50000FF504C510F5000E016E000E026E000E8B
:103A6000036E000E046E000E146E000E156E000E36
:103A7000166E000E176E000E196E77EF1DF01950BE
:103A8000D8B445EF1DF047EF1DF05EEF1DF0D89064
:103A90000D360E360F361036D89001360236033604
:103AA000043617AE56EF1DF058EF1DF059EF1DF01C
:103AB0000180D890143615361636173605500D5C31
:103AC00006500E5807500F5808501058D8A06BEFEA
:103AD0001DF06DEF1DF076EF1DF0178C05500D5E9B
:103AE00006500E5A07500F5A0850105A192A190E2C
:103AF00019647DEF1DF07FEF1DF03FEF1DF00D50BD
:103B00000E100F101010D8B488EF1DF08AEF1DF0C2
:103B1000A2EF1DF01480A2EF1DF0D89001360236FE
:103B20000336043617AE97EF1DF099EF1DF09AEFAC
:103B30001DF00180D8901436153616361736120649
:103B4000D8A0130603AEA7EF1DF0A9EF1DF08DEF6F
:103B50001DF0000E196E17AEB0EF1DF0B2EF1DF0A4
:103B6000D6EF1DF0FF0E1414096EFF0E15140A6E29
:103B7000FF0E16140B6E7F0E17140C6E09500A10F0
:103B80000B100C10D8B4C7EF1DF0C9EF1DF0CDEF2E
:103B90001DF0010E196ED6EF1DF001A0D2EF1DF041
:103BA000D4EF1DF0D6EF1DF0C9EF1DF01950D8B4B9
:103BB000DCEF1DF0DEEF1DF002EF1EF0010E01261E
:103BC000000E02220322042204A0E9EF1DF0EBEF15
:103BD0001DF002EF1EF001C509F502C50AF503C587
:103BE0000BF504C50CF50C340C320B320A320932D9
:103BF00009C501F50AC502F50BC503F50CC504F5A9
:103C0000124A132A13BE0DEF1EF0135008E11228BA
:103C1000D8A00DEF1EF00FEF1EF01AEF1EF0000EF1
:103C2000136E1268000E016E000E026E000E036E1F
:103C3000000E046E13BE27EF1EF0135006E11204AF
:103C4000D8B025EF1EF027EF1EF035EF1EF0000E66
:103C5000136E000E126E000E016E000E026E000E4C
:103C6000036E000E046E000E116E12C518F518A03A
:103C70003CEF1EF03EEF1EF041EF1EF0038E42EFD0
:103C80001EF0039ED8901830046EF8EF1CF012005E
:103C90008EC5D9F48FC5DAF4DEC4F6F4DDC4F7F4CA
:103CA000000EF86E0800F550250AD8A45AEF1EF051
:103CB0005CEF1EF049EF1FF08EC5D9F48FC5DAF422
:103CC000DE2A000EDD22000E0501B86F000EB76F70
:103CD000B7C5B9F55E685F688EC5D9F48FC5DAF4EB
:103CE000DEC448F5DDC449F548C5F6F449C5F7F426
:103CF000000EF86E0800F5C447F58BEF1EF0484A39
:103D0000492AA4EF1EF06C0E476EA4EF1EF0000EC1
:103D1000476EA4EF1EF047503D6E3E6A3E50000ACB
:103D2000D8B495EF1EF087EF1EF03D504C0AD8B482
:103D30007FEF1EF02A0AD8B483EF1EF00A0AD8B427
:103D40007FEF1EF087EF1EF048C5F6F449C5F7F483
:103D5000000EF86E0800F550660AD8A4B2EF1EF007
:103D6000B4EF1EF040EF1FF0EAEF1EF090C5D9F45B
:103D700091C5DAF4DFC43DF5040EDE26DFC43EF55E
:103D8000000EDD223DC5D9F43EC5DAF4DEC43FF5B0
:103D9000DEC440F5DEC441F5DEC442F5FFEF1EF09F
:103DA00090C5D9F491C5DAF4DFC43DF5040EDE26E2
:103DB000DFC43EF5000EDD223DC5D9F43EC5DAF480
:103DC000DEC43FF5DEC440F5DEC441F5DEC442F595
:103DD000FFEF1EF047503D6E3E6A3E50000AD8B4D9
:103DE000F4EF1EF0FFEF1EF03D504C0AD8B4D0EFB8
:103DF0001EF0200AD8B4B6EF1EF0FFEF1EF0010E41
:103E000048243D6E000E49203E6E8EC5D9F48FC504
:103E1000DAF43DC5DEF43EC5DDF428EF1FF08CC5B5
:103E200034F58DC535F53FC536F540C537F541C587
:103E300038F542C539F548C5F6F449C5F7F4000E22
:103E4000F86E0800F5C43AF508EC13F05FEF1FF0C8
:103E500048C5F6F449C5F7F4000EF86E0800F550B1
:103E60003D6E3E6A3E50000AD8B439EF1FF040EF75
:103E70001FF03D50660AD8B40FEF1FF040EF1FF05F
:103E80008EC5D9F48FC5DAF4DE2A000EDD225FEF8D
:103E90001FF08EC5D9F48FC5DAF4DEC4F6F4DDC4A4
:103EA000F7F4000EF86E0800F550016E026A8CC53A
:103EB00003F58DC504F53FEC23F040EF1FF0120031
:103EC000AFC52AF5B0C52BF5B1C52CF5B2C52DF59A
:103ED0001AC52AF51BC52BF51CC52CF51DC52DF5DE
:103EE000810E1E6EFF0E1F6E2AC520F52BC521F513
:103EF0002CC522F52DC523F5180E84EF1FF0D890A0
:103F00002332223221322032E82E7FEF1FF0205060
:103F10001E24286E000E1F20296E29BE99EF1FF067
:103F2000295009E1170E285CD8A099EF1FF09BEFEC
:103F30001FF0A5EF1FF01AC51AF51BC51BF51CC510
:103F40001CF51DC51DF568EF20F029BEAAEF1FF076
:103F5000ACEF1FF01CEF20F028C51EF5FF0E1F6E02
:103F6000FF0E206E7F0E216E000E226E1E66BBEFCE
:103F70001FF0C3EF1FF022342232213220321F32D1
:103F80001E2EB6EF1FF01FC524F520C525F521C54F
:103F900026F522C527F524502A141E6E25502B1411
:103FA0001F6E26502C14206E27502D14216E1E508B
:103FB0001F1020102110D8A4E0EF1FF0E2EF1FF037
:103FC000E4EF1FF09BEF1FF02AC51EF52BC51FF570
:103FD0002CC520F52DC521F5200EF4EF1FF0D8904B
:103FE000213220321F321E32E82EEFEF1FF01E501A
:103FF0001F1020102110D8B400EF20F002EF20F0A5
:104000000AEF20F024502A2625502B2226502C225D
:1040100027502D22241C1E6E251C1F6E261C206E70
:10402000271C216E1E502A161F502B1620502C16AE
:1040300021502D1660EF20F02AC51EF52BC51FF567
:104040002CC520F52DC521F5200E2CEF20F0D890A1
:10405000213220321F321E32E82E27EF20F01E5070
:104060001F1020102110D8A438EF20F03AEF20F0D4
:1040700044EF20F0000E2A6E000E2B6E000E2C6E08
:10408000000E2D6E60EF20F0D8902A341E6E2B3477
:104090001F6E2C34206E2D34216E1E501F102010E8
:1040A0002110D8B456EF20F058EF20F060EF20F048
:1040B000000E2A6E000E2B6E800E2C6EBF0E2D6E23
:1040C0002AC51AF52BC51BF52CC51CF52DC51DF5EC
:1040D0001200096E0950D8B470EF20F072EF20F092
:1040E00094EF20F004BE79EF20F077EF20F094EF0A
:1040F00020F001C505F502C506F503C507F504C5A1
:1041000008F5051E061E071E081E052A000E0622BB
:104110000722082205C50BF506C50CF507C50DF5E8
:1041200008C50EF59CEF20F001C50BF502C50CF596
:1041300003C50DF504C50EF501500210031004105F
:10414000D8A4A5EF20F0A7EF20F0B1EF20F0000EEB
:10415000016E000E026E000E036E000E046E42EF42
:1041600021F0960E0A6EBBEF20F00A2AD8900E328C
:104170000D320C320B32000E0B14056E000E0C14B7
:10418000066E000E0D14076EFE0E0E14086E05501E
:10419000061007100810D8A4D0EF20F0D2EF20F0BE
:1041A000B5EF20F0E0EF20F00A2A010E0B26000EFA
:1041B0000C220D220E22D8900E320D320C320B3210
:1041C000000E0B14056E000E0C14066E000E0D147E
:1041D000076EFF0E0E14086E05500610071008102B
:1041E000D8A4F5EF20F0F7EF20F0D4EF20F0FFEFA8
:1041F00020F00A06D8900B360C360D360E360DBE62
:1042000004EF21F006EF21F00EEF21F0020E0A601C
:104210000CEF21F00EEF21F0F9EF20F00AB013EFD0
:1042200021F015EF21F016EF21F00D9ED8900A3203
:104230000AC505F5066A076A086A05C508F5076A2A
:10424000066A056A05500B1206500C1207500D1233
:1042500008500E120950D8B430EF21F032EF21F09F
:104260003AEF21F004BE39EF21F037EF21F03AEFB9
:1042700021F00E8E0BC501F50CC502F50DC503F539
:104280000EC504F51200033404340A6E0A50D8A493
:104290004CEF21F04EEF21F058EF21F0000E016EAF
:1042A000000E026E000E036E000E046EC5EF21F0CC
:1042B00001C505F502C506F503C507F504C508F5F2
:1042C000200E68EF21F0D89008320732063205320E
:1042D000E82E63EF21F00550096E038EFF0E0116E4
:1042E000FF0E0216FF0E0316000E0416960E0A5E4F
:1042F0000ABE7FEF21F07DEF21F095EF21F00A500B
:10430000800A970FD8B087EF21F089EF21F08BEF6B
:1043100021F04EEF21F0D890043203320232013204
:104320000A3E8BEF21F0ADEF21F01F0E0A649BEFE8
:1043300021F09DEF21F0A5EF21F04EEF21F0D89074
:1043400001360236033604360A060A50D8A4ABEF0B
:1043500021F0ADEF21F09FEF21F00950D8B4B3EF79
:1043600021F0B5EF21F0BDEF21F0041E031E021E67
:10437000016C000E02220322042201C501F502C5D0
:1043800002F503C503F504C504F51200000E281458
:10439000306E000E2914316E800E2A14326E7F0E9C
:1043A0002B14336E3050311032103310D8A4DBEFA1
:1043B00021F0DDEF21F0E5EF21F0000E286E000E78
:1043C000296E000E2A6E000E2B6E000E2C14306E1D
:1043D000000E2D14316E800E2E14326E7F0E2F14AF
:1043E000336E3050311032103310D8A4FAEF21F070
:1043F000FCEF21F004EF22F0000E2C6E000E2D6E6B
:10440000000E2E6E000E2F6E2BAE09EF22F00BEF7A
:1044100022F014EF22F0286C291ED8B0292A2A1E77
:10442000D8B02A2A800E2B562FAE19EF22F01BEFA0
:1044300022F024EF22F02C6C2D1ED8B02D2A2E1E37
:10444000D8B02E2A800E2F56000E281A000E291AD8
:10445000000E2A1A800E2B1A000E2C1A000E2D1A8E
:10446000000E2E1A800E2F1A2C50285C2D50295821
:104470002E502A582F502B58D8B041EF22F043EF3E
:1044800022F046EF22F0D89047EF22F0D8801200B9
:10449000B3C50BF5B4C50CF5B5C50DF5B6C50EF530
:1044A00001C50BF502C50CF503C50DF504C50EF5E8
:1044B0000BC505F50CC506F50DC507F50EC508F5C8
:1044C000180E68EF22F0D890083207320632053213
:1044D000E82E63EF22F00550096E0A6A09500A10AF
:1044E000D8A475EF22F077EF22F097EF22F0D89062
:1044F0000B34056E0C34066E0D34076E0E34086EE8
:104500000550061007100810D8A489EF22F08BEF91
:1045100022F091EF22F0000E026E020E016EC6EF45
:1045200022F0000E026E030E016EC6EF22F0092883
:104530000A10D8A49EEF22F0A0EF22F0C2EF22F0E2
:104540000BC505F50CC506F50DC507F50EC508F537
:10455000090ED8900536063607360836E82EA9EF3C
:1045600022F00550061007100810D8B4BAEF22F058
:10457000BDEF22F0010EBEEF22F0000E016E026AC6
:10458000C6EF22F0000E026E040E016E1200F6C499
:104590005AF5F7C45BF5F8C45CF5F5C45DF50201A6
:1045A000B08BEBC3ACF50501AC51016E026A036A36
:1045B000046A010E69EC20F001C50FF502C510F583
:1045C00003C511F504C512F5860E136E5A0E146E4E
:1045D000530E156E3C0E166E66EC1AF00FC5A8F55C
:1045E00010C5A9F511C5AAF512C5ABF5A00E0501B8
:1045F000986F050E996F010E9A6F260E9B6FA8C5D6
:104600009CF5A9C59DF5AAC59EF5ABC59FF594EC93
:1046100024F0000E0501AE6F000EAD6F0201AB8BF2
:10462000A00E0501AD25D96E050EAE21DA6EDF5064
:104630000201A36F110E596E3A0EE82EFED7592EC5
:10464000FCD700D00201AB9B0501AD4BAE2BAEBF3A
:1046500033EF23F0AE5109E1080EAD5DD8A033EF82
:1046600023F035EF23F00EEF23F0AF945DC5F5F4A2
:104670005CC5F8F45BC5F7F45AC5F6F411000350B5
:104680000410D8B446EF23F048EF23F051EF23F0A5
:1046900003500410D8A44FEF23F051EF23F056EF4E
:1046A00023F00150A6EC25F0A3EF23F020EE09F053
:1046B0000350D9260450DA22DE50DE10D8B463EF5E
:1046C00023F065EF23F080EF23F020EE09F0035094
:1046D000D9260450DA2210EE03F00350E1260450EC
:1046E000E222DE50E65CE650800A096EDE50800A67
:1046F0000958D8B07EEF23F080EF23F0A3EF23F02A
:1047000020EE03F00350D9260450DA22DEC405F56A
:10471000DDC406F503C5D9F404C5DAF4DEC407F533
:10472000DDC408F505500724D96E06500820DA6E5E
:1047300001C5DFF420EE03F00350D9260450DA223D
:10474000DE2A000EDD221200000E0114096E000E9A
:1047500002140A6E800E03140B6E7F0E04140C6E8E
:1047600009500A100B100C10D8A4B9EF23F0BBEFBE
:1047700023F0C3EF23F0000E016E000E026E000E58
:10478000036E000E046E000E0514096E000E061472
:104790000A6E800E07140B6E7F0E08140C6E095003
:1047A0000A100B100C10D8A4D8EF23F0DAEF23F086
:1047B000E2EF23F0000E056E000E066E000E076E8F
:1047C000000E086E055001180FE1065002180CE1AA
:1047D0000750031809E108500418D8B4F2EF23F089
:1047E000F4EF23F0F7EF23F0D890F8EF23F0D88020
:1047F000120016BEFEEF23F000EF24F006EF24F0C7
:1048000015C51AF516C51BF50AEF24F0000E1B6E30
:10481000000E1A6E000E196E000E186E1CEF24F0BA
:10482000000E026E200E016E11C503F512C504F5CF
:104830003FEC23F0184A192A1A50185C1950800AC4
:10484000176E1B50800A1758D8A029EF24F02BEFC1
:1048500024F010EF24F013C50AF514C50BF511C5AB
:104860000CF512C50DF550EC25F0120004BE45EF15
:1048700024F004500310021006E10104D8B043EF05
:1048800024F045EF24F060EF24F001C505F502C5E2
:1048900006F503C507F504C508F5051E061E071E27
:1048A000081E052A000E06220722082205C501F56A
:1048B00006C502F507C503F508C504F568EF24F041
:1048C00001C501F502C502F503C503F504C504F5EC
:1048D000120094C54AF595C54BF57EEF24F092C5BC
:1048E0008CF593C58DF54A0E05018E6F050E8F6F01
:1048F00096C590F597C591F548EC1EF04AC5F6F4BB
:104900004BC5F7F4000EF86E0800F5500009D8A466
:104910008CEF24F08EEF24F06FEF24F0000E0501F1
:10492000936F000E926F12009C0E4C6E050E4D6E32
:1049300098C54EF599C54FF5000E526E000E516E9A
:10494000000E586E000E576E4E0E0501926F050E4A
:10495000936F9AC594F59BC595F54C0E966F050E11
:10496000976F69EC24F0515005019825D96E52508B
:104970009921DA6E000EDF6E120003C509F504C539
:104980000AF501C507F502C508F5D7EF24F009C5FA
:10499000D9F40AC5DAF4DF500B6E094A0A2A07C5B2
:1049A000D9F408C5DAF40BC5DFF4074A082A05066E
:1049B000D8A00606052806E10628D8A4E2EF24F0D0
:1049C000E4EF24F0C7EF24F01200C6800401008158
:1049D000000E0301EC6F0F0EF817F00EF817F399A5
:1049E0009F84F30EF317F38DF38FF381CB900401C3
:1049F0002891200E0201296FF00EAB17AC8FAB8F00
:104A0000000EAF6F670EAE6FD68ED68CD68A07EFCC
:104A100025F00DEF00F0000E2C1A000E2D1A000EDE
:104A20002E1A800E2F1A28C501F529C502F52AC5B0
:104A300003F52BC504F52CC505F52DC506F52EC5CA
:104A400007F52FC508F506EC18F001C528F502C5D5
:104A500029F503C52AF504C52BF5120003C505F594
:104A600004C506F501C507F502C508F505C5F6F448
:104A700006C5F7F4054A062A000EF86E07C5D9F4F4
:104A800008C5DAF4074A082A0800F5C4DFF4DF5045
:104A9000D8A44DEF25F04FEF25F036EF25F01200AA
:104AA000000E106E000E0F6E61EF25F00EC501F5C1
:104AB000026A0CC503F50DC504F53FEC23F00F4A5F
:104AC000102A0F500A24D96E10500B20DA6EDF50D6
:104AD0000E6E0E50D8A46FEF25F071EF25F056EF53
:104AE00025F012000150021003100410D8B47BEF1F
:104AF00025F07DEF25F085EF25F0000E011A000E60
:104B0000021A000E031A800E041A01C501F502C52F
:104B100002F503C503F504C504F5120001EE00F229
:104B2000500EEE6AE806FDE101EEAFF10B0EEE6A03
:104B3000E806FDE15F6A5E6A0401080E5D6F000E23
:0E4B40005E6F000E5F6F0001E5EF24F01200C3
:020000040020DA
:10000000FF0FFF0FFF0FFF0FFF0FFF0FFF0FFF0F80
:10001000FF0FFF0FFF0FFF0FFF0FFF0FFF0FFF0F70
:10002000FF0FFF0FFF0FFF0FFF0FFF0FFF0FFF0F60
:10003000FF0FFF0FFF0FFF0FFF0FFF0FFF0FFF0F50
:020000040030CA
:0A000000ECFFF7FF9FFFFFFFFFFF7B
:00000001FF
