:1010000038EF08F00000A40E12EF08F00000400EC8
:1010100012EF08F01F0E12EF08F000000E0E12EF94
:1010200008F0050E006E002E13EF08F01200C80E37
:101030002DEF08F0640E2DEF08F0320E2DEF08F0C2
:10104000140E2DEF08F00A0E2DEF08F0050E2DEF0F
:1010500008F0020E2DEF08F0010E016EF90E006E81
:101060000000002E30EF08F0012E2EEF08F01200E5
:101070000F015E0ED36F956A8C688C6A17EC08F0CE
:0A1080008C6817EC08F03DEF08F053
:020000040030CA
:0400000000285F3C39
:02000500D385A1
:060008000FC00FE00F40E5
:00000001FF
